{
  "abi": [
    {
      "inputs": [
        {
          "internalType": "uint256",
          "name": "",
          "type": "uint256"
        }
      ],
      "name": "campaigns",
      "outputs": [
        {
          "internalType": "contract Campaign",
          "name": "",
          "type": "address"
        }
      ],
      "stateMutability": "view",
      "type": "function"
    },
    {
      "inputs": [
        {
          "internalType": "uint256",
          "name": "minimum",
          "type": "uint256"
        }
      ],
      "name": "createCampaign",
      "outputs": [],
      "stateMutability": "nonpayable",
      "type": "function"
    },
    {
      "inputs": [],
      "name": "getCampaigns",
      "outputs": [
        {
          "internalType": "contract Campaign[]",
          "name": "",
          "type": "address[]"
        }
      ],
      "stateMutability": "view",
      "type": "function"
    }
  ],
  "devdoc": {
    "kind": "dev",
    "methods": {},
    "version": 1
  },
  "evm": {
    "assembly": "    /* \"campaign.sol\":59:392  contract CampaignFactory {... */\n  mstore(0x40, 0x80)\n  callvalue\n  dup1\n  iszero\n  tag_1\n  jumpi\n  0x00\n  dup1\n  revert\ntag_1:\n  pop\n  dataSize(sub_0)\n  dup1\n  dataOffset(sub_0)\n  0x00\n  codecopy\n  0x00\n  return\nstop\n\nsub_0: assembly {\n        /* \"campaign.sol\":59:392  contract CampaignFactory {... */\n      mstore(0x40, 0x80)\n      callvalue\n      dup1\n      iszero\n      tag_1\n      jumpi\n      0x00\n      dup1\n      revert\n    tag_1:\n      pop\n      jumpi(tag_2, lt(calldatasize, 0x04))\n      shr(0xe0, calldataload(0x00))\n      dup1\n      0x141961bc\n      eq\n      tag_3\n      jumpi\n      dup1\n      0xa3303a75\n      eq\n      tag_4\n      jumpi\n      dup1\n      0xa6b03633\n      eq\n      tag_5\n      jumpi\n    tag_2:\n      0x00\n      dup1\n      revert\n        /* \"campaign.sol\":90:117  Campaign[] public campaigns */\n    tag_3:\n      tag_6\n      0x04\n      dup1\n      calldatasize\n      sub\n      dup2\n      add\n      swap1\n      tag_7\n      swap2\n      swap1\n      tag_8\n      jump\t// in\n    tag_7:\n      tag_9\n      jump\t// in\n    tag_6:\n      mload(0x40)\n      tag_10\n      swap2\n      swap1\n      tag_11\n      jump\t// in\n    tag_10:\n      mload(0x40)\n      dup1\n      swap2\n      sub\n      swap1\n      return\n        /* \"campaign.sol\":128:283  function createCampaign(uint minimum) public {... */\n    tag_4:\n      tag_12\n      0x04\n      dup1\n      calldatasize\n      sub\n      dup2\n      add\n      swap1\n      tag_13\n      swap2\n      swap1\n      tag_8\n      jump\t// in\n    tag_13:\n      tag_14\n      jump\t// in\n    tag_12:\n      stop\n        /* \"campaign.sol\":293:390  function getCampaigns() public view returns (Campaign[] memory) {... */\n    tag_5:\n      tag_15\n      tag_16\n      jump\t// in\n    tag_15:\n      mload(0x40)\n      tag_17\n      swap2\n      swap1\n      tag_18\n      jump\t// in\n    tag_17:\n      mload(0x40)\n      dup1\n      swap2\n      sub\n      swap1\n      return\n        /* \"campaign.sol\":90:117  Campaign[] public campaigns */\n    tag_9:\n      0x00\n      dup2\n      dup2\n      sload\n      dup2\n      lt\n      tag_19\n      jumpi\n      0x00\n      dup1\n      revert\n    tag_19:\n      swap1\n      0x00\n      mstore\n      keccak256(0x00, 0x20)\n      add\n      0x00\n      swap2\n      pop\n      sload\n      swap1\n      0x0100\n      exp\n      swap1\n      div\n      0xffffffffffffffffffffffffffffffffffffffff\n      and\n      dup2\n      jump\t// out\n        /* \"campaign.sol\":128:283  function createCampaign(uint minimum) public {... */\n    tag_14:\n        /* \"campaign.sol\":183:203  Campaign newCampaign */\n      0x00\n        /* \"campaign.sol\":219:226  minimum */\n      dup2\n        /* \"campaign.sol\":228:238  msg.sender */\n      caller\n        /* \"campaign.sol\":206:239  new Campaign(minimum, msg.sender) */\n      mload(0x40)\n      tag_22\n      swap1\n      tag_23\n      jump\t// in\n    tag_22:\n      tag_24\n      swap3\n      swap2\n      swap1\n      tag_25\n      jump\t// in\n    tag_24:\n      mload(0x40)\n      dup1\n      swap2\n      sub\n      swap1\n      0x00\n      create\n      dup1\n      iszero\n      dup1\n      iszero\n      tag_26\n      jumpi\n      returndatasize\n      0x00\n      dup1\n      returndatacopy\n      revert(0x00, returndatasize)\n    tag_26:\n      pop\n        /* \"campaign.sol\":183:239  Campaign newCampaign = new Campaign(minimum, msg.sender) */\n      swap1\n      pop\n        /* \"campaign.sol\":249:258  campaigns */\n      0x00\n        /* \"campaign.sol\":264:275  newCampaign */\n      dup2\n        /* \"campaign.sol\":249:276  campaigns.push(newCampaign) */\n      swap1\n      dup1\n      0x01\n      dup2\n      sload\n      add\n      dup1\n      dup3\n      sstore\n      dup1\n      swap2\n      pop\n      pop\n      0x01\n      swap1\n      sub\n      swap1\n      0x00\n      mstore\n      keccak256(0x00, 0x20)\n      add\n      0x00\n      swap1\n      swap2\n      swap1\n      swap2\n      swap1\n      swap2\n      0x0100\n      exp\n      dup2\n      sload\n      dup2\n      0xffffffffffffffffffffffffffffffffffffffff\n      mul\n      not\n      and\n      swap1\n      dup4\n      0xffffffffffffffffffffffffffffffffffffffff\n      and\n      mul\n      or\n      swap1\n      sstore\n      pop\n        /* \"campaign.sol\":173:283  {... */\n      pop\n        /* \"campaign.sol\":128:283  function createCampaign(uint minimum) public {... */\n      pop\n      jump\t// out\n        /* \"campaign.sol\":293:390  function getCampaigns() public view returns (Campaign[] memory) {... */\n    tag_16:\n        /* \"campaign.sol\":338:355  Campaign[] memory */\n      0x60\n        /* \"campaign.sol\":374:383  campaigns */\n      0x00\n        /* \"campaign.sol\":367:383  return campaigns */\n      dup1\n      sload\n      dup1\n      0x20\n      mul\n      0x20\n      add\n      mload(0x40)\n      swap1\n      dup2\n      add\n      0x40\n      mstore\n      dup1\n      swap3\n      swap2\n      swap1\n      dup2\n      dup2\n      mstore\n      0x20\n      add\n      dup3\n      dup1\n      sload\n      dup1\n      iszero\n      tag_29\n      jumpi\n      0x20\n      mul\n      dup3\n      add\n      swap2\n      swap1\n      0x00\n      mstore\n      keccak256(0x00, 0x20)\n      swap1\n    tag_30:\n      dup2\n      0x00\n      swap1\n      sload\n      swap1\n      0x0100\n      exp\n      swap1\n      div\n      0xffffffffffffffffffffffffffffffffffffffff\n      and\n      0xffffffffffffffffffffffffffffffffffffffff\n      and\n      dup2\n      mstore\n      0x20\n      add\n      swap1\n      0x01\n      add\n      swap1\n      dup1\n      dup4\n      gt\n      tag_30\n      jumpi\n    tag_29:\n      pop\n      pop\n      pop\n      pop\n      pop\n      swap1\n      pop\n        /* \"campaign.sol\":293:390  function getCampaigns() public view returns (Campaign[] memory) {... */\n      swap1\n      jump\t// out\n    tag_23:\n      dataSize(sub_0)\n      dup1\n      dataOffset(sub_0)\n      dup4\n      codecopy\n      add\n      swap1\n      jump\t// out\n        /* \"#utility.yul\":88:205   */\n    tag_32:\n        /* \"#utility.yul\":197:198   */\n      0x00\n        /* \"#utility.yul\":194:195   */\n      dup1\n        /* \"#utility.yul\":187:199   */\n      revert\n        /* \"#utility.yul\":334:411   */\n    tag_34:\n        /* \"#utility.yul\":371:378   */\n      0x00\n        /* \"#utility.yul\":400:405   */\n      dup2\n        /* \"#utility.yul\":389:405   */\n      swap1\n      pop\n        /* \"#utility.yul\":334:411   */\n      swap2\n      swap1\n      pop\n      jump\t// out\n        /* \"#utility.yul\":417:539   */\n    tag_35:\n        /* \"#utility.yul\":490:514   */\n      tag_59\n        /* \"#utility.yul\":508:513   */\n      dup2\n        /* \"#utility.yul\":490:514   */\n      tag_34\n      jump\t// in\n    tag_59:\n        /* \"#utility.yul\":483:488   */\n      dup2\n        /* \"#utility.yul\":480:515   */\n      eq\n        /* \"#utility.yul\":470:533   */\n      tag_60\n      jumpi\n        /* \"#utility.yul\":529:530   */\n      0x00\n        /* \"#utility.yul\":526:527   */\n      dup1\n        /* \"#utility.yul\":519:531   */\n      revert\n        /* \"#utility.yul\":470:533   */\n    tag_60:\n        /* \"#utility.yul\":417:539   */\n      pop\n      jump\t// out\n        /* \"#utility.yul\":545:684   */\n    tag_36:\n        /* \"#utility.yul\":591:596   */\n      0x00\n        /* \"#utility.yul\":629:635   */\n      dup2\n        /* \"#utility.yul\":616:636   */\n      calldataload\n        /* \"#utility.yul\":607:636   */\n      swap1\n      pop\n        /* \"#utility.yul\":645:678   */\n      tag_62\n        /* \"#utility.yul\":672:677   */\n      dup2\n        /* \"#utility.yul\":645:678   */\n      tag_35\n      jump\t// in\n    tag_62:\n        /* \"#utility.yul\":545:684   */\n      swap3\n      swap2\n      pop\n      pop\n      jump\t// out\n        /* \"#utility.yul\":690:1019   */\n    tag_8:\n        /* \"#utility.yul\":749:755   */\n      0x00\n        /* \"#utility.yul\":798:800   */\n      0x20\n        /* \"#utility.yul\":786:795   */\n      dup3\n        /* \"#utility.yul\":777:784   */\n      dup5\n        /* \"#utility.yul\":773:796   */\n      sub\n        /* \"#utility.yul\":769:801   */\n      slt\n        /* \"#utility.yul\":766:885   */\n      iszero\n      tag_64\n      jumpi\n        /* \"#utility.yul\":804:883   */\n      tag_65\n      tag_32\n      jump\t// in\n    tag_65:\n        /* \"#utility.yul\":766:885   */\n    tag_64:\n        /* \"#utility.yul\":924:925   */\n      0x00\n        /* \"#utility.yul\":949:1002   */\n      tag_66\n        /* \"#utility.yul\":994:1001   */\n      dup5\n        /* \"#utility.yul\":985:991   */\n      dup3\n        /* \"#utility.yul\":974:983   */\n      dup6\n        /* \"#utility.yul\":970:992   */\n      add\n        /* \"#utility.yul\":949:1002   */\n      tag_36\n      jump\t// in\n    tag_66:\n        /* \"#utility.yul\":939:1002   */\n      swap2\n      pop\n        /* \"#utility.yul\":895:1012   */\n      pop\n        /* \"#utility.yul\":690:1019   */\n      swap3\n      swap2\n      pop\n      pop\n      jump\t// out\n        /* \"#utility.yul\":1025:1151   */\n    tag_37:\n        /* \"#utility.yul\":1062:1069   */\n      0x00\n        /* \"#utility.yul\":1102:1144   */\n      0xffffffffffffffffffffffffffffffffffffffff\n        /* \"#utility.yul\":1095:1100   */\n      dup3\n        /* \"#utility.yul\":1091:1145   */\n      and\n        /* \"#utility.yul\":1080:1145   */\n      swap1\n      pop\n        /* \"#utility.yul\":1025:1151   */\n      swap2\n      swap1\n      pop\n      jump\t// out\n        /* \"#utility.yul\":1157:1217   */\n    tag_38:\n        /* \"#utility.yul\":1185:1188   */\n      0x00\n        /* \"#utility.yul\":1206:1211   */\n      dup2\n        /* \"#utility.yul\":1199:1211   */\n      swap1\n      pop\n        /* \"#utility.yul\":1157:1217   */\n      swap2\n      swap1\n      pop\n      jump\t// out\n        /* \"#utility.yul\":1223:1365   */\n    tag_39:\n        /* \"#utility.yul\":1273:1282   */\n      0x00\n        /* \"#utility.yul\":1306:1359   */\n      tag_70\n        /* \"#utility.yul\":1324:1358   */\n      tag_71\n        /* \"#utility.yul\":1333:1357   */\n      tag_72\n        /* \"#utility.yul\":1351:1356   */\n      dup5\n        /* \"#utility.yul\":1333:1357   */\n      tag_37\n      jump\t// in\n    tag_72:\n        /* \"#utility.yul\":1324:1358   */\n      tag_38\n      jump\t// in\n    tag_71:\n        /* \"#utility.yul\":1306:1359   */\n      tag_37\n      jump\t// in\n    tag_70:\n        /* \"#utility.yul\":1293:1359   */\n      swap1\n      pop\n        /* \"#utility.yul\":1223:1365   */\n      swap2\n      swap1\n      pop\n      jump\t// out\n        /* \"#utility.yul\":1371:1497   */\n    tag_40:\n        /* \"#utility.yul\":1421:1430   */\n      0x00\n        /* \"#utility.yul\":1454:1491   */\n      tag_74\n        /* \"#utility.yul\":1485:1490   */\n      dup3\n        /* \"#utility.yul\":1454:1491   */\n      tag_39\n      jump\t// in\n    tag_74:\n        /* \"#utility.yul\":1441:1491   */\n      swap1\n      pop\n        /* \"#utility.yul\":1371:1497   */\n      swap2\n      swap1\n      pop\n      jump\t// out\n        /* \"#utility.yul\":1503:1645   */\n    tag_41:\n        /* \"#utility.yul\":1569:1578   */\n      0x00\n        /* \"#utility.yul\":1602:1639   */\n      tag_76\n        /* \"#utility.yul\":1633:1638   */\n      dup3\n        /* \"#utility.yul\":1602:1639   */\n      tag_40\n      jump\t// in\n    tag_76:\n        /* \"#utility.yul\":1589:1639   */\n      swap1\n      pop\n        /* \"#utility.yul\":1503:1645   */\n      swap2\n      swap1\n      pop\n      jump\t// out\n        /* \"#utility.yul\":1651:1814   */\n    tag_42:\n        /* \"#utility.yul\":1754:1807   */\n      tag_78\n        /* \"#utility.yul\":1801:1806   */\n      dup2\n        /* \"#utility.yul\":1754:1807   */\n      tag_41\n      jump\t// in\n    tag_78:\n        /* \"#utility.yul\":1749:1752   */\n      dup3\n        /* \"#utility.yul\":1742:1808   */\n      mstore\n        /* \"#utility.yul\":1651:1814   */\n      pop\n      pop\n      jump\t// out\n        /* \"#utility.yul\":1820:2074   */\n    tag_11:\n        /* \"#utility.yul\":1929:1933   */\n      0x00\n        /* \"#utility.yul\":1967:1969   */\n      0x20\n        /* \"#utility.yul\":1956:1965   */\n      dup3\n        /* \"#utility.yul\":1952:1970   */\n      add\n        /* \"#utility.yul\":1944:1970   */\n      swap1\n      pop\n        /* \"#utility.yul\":1980:2067   */\n      tag_80\n        /* \"#utility.yul\":2064:2065   */\n      0x00\n        /* \"#utility.yul\":2053:2062   */\n      dup4\n        /* \"#utility.yul\":2049:2066   */\n      add\n        /* \"#utility.yul\":2040:2046   */\n      dup5\n        /* \"#utility.yul\":1980:2067   */\n      tag_42\n      jump\t// in\n    tag_80:\n        /* \"#utility.yul\":1820:2074   */\n      swap3\n      swap2\n      pop\n      pop\n      jump\t// out\n        /* \"#utility.yul\":2080:2210   */\n    tag_43:\n        /* \"#utility.yul\":2163:2169   */\n      0x00\n        /* \"#utility.yul\":2197:2202   */\n      dup2\n        /* \"#utility.yul\":2191:2203   */\n      mload\n        /* \"#utility.yul\":2181:2203   */\n      swap1\n      pop\n        /* \"#utility.yul\":2080:2210   */\n      swap2\n      swap1\n      pop\n      jump\t// out\n        /* \"#utility.yul\":2216:2400   */\n    tag_44:\n        /* \"#utility.yul\":2315:2326   */\n      0x00\n        /* \"#utility.yul\":2349:2355   */\n      dup3\n        /* \"#utility.yul\":2344:2347   */\n      dup3\n        /* \"#utility.yul\":2337:2356   */\n      mstore\n        /* \"#utility.yul\":2389:2393   */\n      0x20\n        /* \"#utility.yul\":2384:2387   */\n      dup3\n        /* \"#utility.yul\":2380:2394   */\n      add\n        /* \"#utility.yul\":2365:2394   */\n      swap1\n      pop\n        /* \"#utility.yul\":2216:2400   */\n      swap3\n      swap2\n      pop\n      pop\n      jump\t// out\n        /* \"#utility.yul\":2406:2554   */\n    tag_45:\n        /* \"#utility.yul\":2489:2493   */\n      0x00\n        /* \"#utility.yul\":2512:2515   */\n      dup2\n        /* \"#utility.yul\":2504:2515   */\n      swap1\n      pop\n        /* \"#utility.yul\":2542:2546   */\n      0x20\n        /* \"#utility.yul\":2537:2540   */\n      dup3\n        /* \"#utility.yul\":2533:2547   */\n      add\n        /* \"#utility.yul\":2525:2547   */\n      swap1\n      pop\n        /* \"#utility.yul\":2406:2554   */\n      swap2\n      swap1\n      pop\n      jump\t// out\n        /* \"#utility.yul\":2560:2713   */\n    tag_46:\n        /* \"#utility.yul\":2653:2706   */\n      tag_85\n        /* \"#utility.yul\":2700:2705   */\n      dup2\n        /* \"#utility.yul\":2653:2706   */\n      tag_41\n      jump\t// in\n    tag_85:\n        /* \"#utility.yul\":2648:2651   */\n      dup3\n        /* \"#utility.yul\":2641:2707   */\n      mstore\n        /* \"#utility.yul\":2560:2713   */\n      pop\n      pop\n      jump\t// out\n        /* \"#utility.yul\":2719:2930   */\n    tag_47:\n        /* \"#utility.yul\":2804:2814   */\n      0x00\n        /* \"#utility.yul\":2825:2887   */\n      tag_87\n        /* \"#utility.yul\":2883:2886   */\n      dup4\n        /* \"#utility.yul\":2875:2881   */\n      dup4\n        /* \"#utility.yul\":2825:2887   */\n      tag_46\n      jump\t// in\n    tag_87:\n        /* \"#utility.yul\":2919:2923   */\n      0x20\n        /* \"#utility.yul\":2914:2917   */\n      dup4\n        /* \"#utility.yul\":2910:2924   */\n      add\n        /* \"#utility.yul\":2896:2924   */\n      swap1\n      pop\n        /* \"#utility.yul\":2719:2930   */\n      swap3\n      swap2\n      pop\n      pop\n      jump\t// out\n        /* \"#utility.yul\":2936:3065   */\n    tag_48:\n        /* \"#utility.yul\":3022:3026   */\n      0x00\n        /* \"#utility.yul\":3054:3058   */\n      0x20\n        /* \"#utility.yul\":3049:3052   */\n      dup3\n        /* \"#utility.yul\":3045:3059   */\n      add\n        /* \"#utility.yul\":3037:3059   */\n      swap1\n      pop\n        /* \"#utility.yul\":2936:3065   */\n      swap2\n      swap1\n      pop\n      jump\t// out\n        /* \"#utility.yul\":3111:3923   */\n    tag_49:\n        /* \"#utility.yul\":3246:3249   */\n      0x00\n        /* \"#utility.yul\":3275:3345   */\n      tag_90\n        /* \"#utility.yul\":3339:3344   */\n      dup3\n        /* \"#utility.yul\":3275:3345   */\n      tag_43\n      jump\t// in\n    tag_90:\n        /* \"#utility.yul\":3361:3447   */\n      tag_91\n        /* \"#utility.yul\":3440:3446   */\n      dup2\n        /* \"#utility.yul\":3435:3438   */\n      dup6\n        /* \"#utility.yul\":3361:3447   */\n      tag_44\n      jump\t// in\n    tag_91:\n        /* \"#utility.yul\":3354:3447   */\n      swap4\n      pop\n        /* \"#utility.yul\":3471:3543   */\n      tag_92\n        /* \"#utility.yul\":3537:3542   */\n      dup4\n        /* \"#utility.yul\":3471:3543   */\n      tag_45\n      jump\t// in\n    tag_92:\n        /* \"#utility.yul\":3566:3573   */\n      dup1\n        /* \"#utility.yul\":3597:3598   */\n      0x00\n        /* \"#utility.yul\":3582:3898   */\n    tag_93:\n        /* \"#utility.yul\":3607:3613   */\n      dup4\n        /* \"#utility.yul\":3604:3605   */\n      dup2\n        /* \"#utility.yul\":3601:3614   */\n      lt\n        /* \"#utility.yul\":3582:3898   */\n      iszero\n      tag_95\n      jumpi\n        /* \"#utility.yul\":3683:3689   */\n      dup2\n        /* \"#utility.yul\":3677:3690   */\n      mload\n        /* \"#utility.yul\":3710:3789   */\n      tag_96\n        /* \"#utility.yul\":3785:3788   */\n      dup9\n        /* \"#utility.yul\":3770:3783   */\n      dup3\n        /* \"#utility.yul\":3710:3789   */\n      tag_47\n      jump\t// in\n    tag_96:\n        /* \"#utility.yul\":3703:3789   */\n      swap8\n      pop\n        /* \"#utility.yul\":3812:3888   */\n      tag_97\n        /* \"#utility.yul\":3881:3887   */\n      dup4\n        /* \"#utility.yul\":3812:3888   */\n      tag_48\n      jump\t// in\n    tag_97:\n        /* \"#utility.yul\":3802:3888   */\n      swap3\n      pop\n        /* \"#utility.yul\":3642:3898   */\n      pop\n        /* \"#utility.yul\":3629:3630   */\n      0x01\n        /* \"#utility.yul\":3626:3627   */\n      dup2\n        /* \"#utility.yul\":3622:3631   */\n      add\n        /* \"#utility.yul\":3617:3631   */\n      swap1\n      pop\n        /* \"#utility.yul\":3582:3898   */\n      jump(tag_93)\n    tag_95:\n        /* \"#utility.yul\":3586:3600   */\n      pop\n        /* \"#utility.yul\":3914:3917   */\n      dup6\n        /* \"#utility.yul\":3907:3917   */\n      swap4\n      pop\n        /* \"#utility.yul\":3251:3923   */\n      pop\n      pop\n      pop\n        /* \"#utility.yul\":3111:3923   */\n      swap3\n      swap2\n      pop\n      pop\n      jump\t// out\n        /* \"#utility.yul\":3929:4334   */\n    tag_18:\n        /* \"#utility.yul\":4088:4092   */\n      0x00\n        /* \"#utility.yul\":4126:4128   */\n      0x20\n        /* \"#utility.yul\":4115:4124   */\n      dup3\n        /* \"#utility.yul\":4111:4129   */\n      add\n        /* \"#utility.yul\":4103:4129   */\n      swap1\n      pop\n        /* \"#utility.yul\":4175:4184   */\n      dup2\n        /* \"#utility.yul\":4169:4173   */\n      dup2\n        /* \"#utility.yul\":4165:4185   */\n      sub\n        /* \"#utility.yul\":4161:4162   */\n      0x00\n        /* \"#utility.yul\":4150:4159   */\n      dup4\n        /* \"#utility.yul\":4146:4163   */\n      add\n        /* \"#utility.yul\":4139:4186   */\n      mstore\n        /* \"#utility.yul\":4203:4327   */\n      tag_99\n        /* \"#utility.yul\":4322:4326   */\n      dup2\n        /* \"#utility.yul\":4313:4319   */\n      dup5\n        /* \"#utility.yul\":4203:4327   */\n      tag_49\n      jump\t// in\n    tag_99:\n        /* \"#utility.yul\":4195:4327   */\n      swap1\n      pop\n        /* \"#utility.yul\":3929:4334   */\n      swap3\n      swap2\n      pop\n      pop\n      jump\t// out\n        /* \"#utility.yul\":4340:4458   */\n    tag_50:\n        /* \"#utility.yul\":4427:4451   */\n      tag_101\n        /* \"#utility.yul\":4445:4450   */\n      dup2\n        /* \"#utility.yul\":4427:4451   */\n      tag_34\n      jump\t// in\n    tag_101:\n        /* \"#utility.yul\":4422:4425   */\n      dup3\n        /* \"#utility.yul\":4415:4452   */\n      mstore\n        /* \"#utility.yul\":4340:4458   */\n      pop\n      pop\n      jump\t// out\n        /* \"#utility.yul\":4464:4560   */\n    tag_51:\n        /* \"#utility.yul\":4501:4508   */\n      0x00\n        /* \"#utility.yul\":4530:4554   */\n      tag_103\n        /* \"#utility.yul\":4548:4553   */\n      dup3\n        /* \"#utility.yul\":4530:4554   */\n      tag_37\n      jump\t// in\n    tag_103:\n        /* \"#utility.yul\":4519:4554   */\n      swap1\n      pop\n        /* \"#utility.yul\":4464:4560   */\n      swap2\n      swap1\n      pop\n      jump\t// out\n        /* \"#utility.yul\":4566:4684   */\n    tag_52:\n        /* \"#utility.yul\":4653:4677   */\n      tag_105\n        /* \"#utility.yul\":4671:4676   */\n      dup2\n        /* \"#utility.yul\":4653:4677   */\n      tag_51\n      jump\t// in\n    tag_105:\n        /* \"#utility.yul\":4648:4651   */\n      dup3\n        /* \"#utility.yul\":4641:4678   */\n      mstore\n        /* \"#utility.yul\":4566:4684   */\n      pop\n      pop\n      jump\t// out\n        /* \"#utility.yul\":4690:5022   */\n    tag_25:\n        /* \"#utility.yul\":4811:4815   */\n      0x00\n        /* \"#utility.yul\":4849:4851   */\n      0x40\n        /* \"#utility.yul\":4838:4847   */\n      dup3\n        /* \"#utility.yul\":4834:4852   */\n      add\n        /* \"#utility.yul\":4826:4852   */\n      swap1\n      pop\n        /* \"#utility.yul\":4862:4933   */\n      tag_107\n        /* \"#utility.yul\":4930:4931   */\n      0x00\n        /* \"#utility.yul\":4919:4928   */\n      dup4\n        /* \"#utility.yul\":4915:4932   */\n      add\n        /* \"#utility.yul\":4906:4912   */\n      dup6\n        /* \"#utility.yul\":4862:4933   */\n      tag_50\n      jump\t// in\n    tag_107:\n        /* \"#utility.yul\":4943:5015   */\n      tag_108\n        /* \"#utility.yul\":5011:5013   */\n      0x20\n        /* \"#utility.yul\":5000:5009   */\n      dup4\n        /* \"#utility.yul\":4996:5014   */\n      add\n        /* \"#utility.yul\":4987:4993   */\n      dup5\n        /* \"#utility.yul\":4943:5015   */\n      tag_52\n      jump\t// in\n    tag_108:\n        /* \"#utility.yul\":4690:5022   */\n      swap4\n      swap3\n      pop\n      pop\n      pop\n      jump\t// out\n    stop\n\n    sub_0: assembly {\n            /* \"campaign.sol\":395:2706  contract Campaign {... */\n          mstore(0x40, 0x80)\n            /* \"campaign.sol\":782:783  0 */\n          0x00\n            /* \"campaign.sol\":762:783  uint requestIndex = 0 */\n          0x04\n          sstore\n            /* \"campaign.sol\":1007:1123  constructor(uint minimum, address creator) {... */\n          callvalue\n          dup1\n          iszero\n          tag_1\n          jumpi\n          0x00\n          dup1\n          revert\n        tag_1:\n          pop\n          mload(0x40)\n          sub(codesize, bytecodeSize)\n          dup1\n          bytecodeSize\n          dup4\n          codecopy\n          dup2\n          dup2\n          add\n          0x40\n          mstore\n          dup2\n          add\n          swap1\n          tag_2\n          swap2\n          swap1\n          tag_3\n          jump\t// in\n        tag_2:\n            /* \"campaign.sol\":1070:1077  creator */\n          dup1\n            /* \"campaign.sol\":1060:1067  manager */\n          0x00\n          dup1\n            /* \"campaign.sol\":1060:1077  manager = creator */\n          0x0100\n          exp\n          dup2\n          sload\n          dup2\n          0xffffffffffffffffffffffffffffffffffffffff\n          mul\n          not\n          and\n          swap1\n          dup4\n          0xffffffffffffffffffffffffffffffffffffffff\n          and\n          mul\n          or\n          swap1\n          sstore\n          pop\n            /* \"campaign.sol\":1109:1116  minimum */\n          dup2\n            /* \"campaign.sol\":1087:1106  minimumContribution */\n          0x01\n            /* \"campaign.sol\":1087:1116  minimumContribution = minimum */\n          dup2\n          swap1\n          sstore\n          pop\n            /* \"campaign.sol\":1007:1123  constructor(uint minimum, address creator) {... */\n          pop\n          pop\n            /* \"campaign.sol\":395:2706  contract Campaign {... */\n          jump(tag_6)\n            /* \"#utility.yul\":88:205   */\n        tag_8:\n            /* \"#utility.yul\":197:198   */\n          0x00\n            /* \"#utility.yul\":194:195   */\n          dup1\n            /* \"#utility.yul\":187:199   */\n          revert\n            /* \"#utility.yul\":334:411   */\n        tag_10:\n            /* \"#utility.yul\":371:378   */\n          0x00\n            /* \"#utility.yul\":400:405   */\n          dup2\n            /* \"#utility.yul\":389:405   */\n          swap1\n          pop\n            /* \"#utility.yul\":334:411   */\n          swap2\n          swap1\n          pop\n          jump\t// out\n            /* \"#utility.yul\":417:539   */\n        tag_11:\n            /* \"#utility.yul\":490:514   */\n          tag_23\n            /* \"#utility.yul\":508:513   */\n          dup2\n            /* \"#utility.yul\":490:514   */\n          tag_10\n          jump\t// in\n        tag_23:\n            /* \"#utility.yul\":483:488   */\n          dup2\n            /* \"#utility.yul\":480:515   */\n          eq\n            /* \"#utility.yul\":470:533   */\n          tag_24\n          jumpi\n            /* \"#utility.yul\":529:530   */\n          0x00\n            /* \"#utility.yul\":526:527   */\n          dup1\n            /* \"#utility.yul\":519:531   */\n          revert\n            /* \"#utility.yul\":470:533   */\n        tag_24:\n            /* \"#utility.yul\":417:539   */\n          pop\n          jump\t// out\n            /* \"#utility.yul\":545:688   */\n        tag_12:\n            /* \"#utility.yul\":602:607   */\n          0x00\n            /* \"#utility.yul\":633:639   */\n          dup2\n            /* \"#utility.yul\":627:640   */\n          mload\n            /* \"#utility.yul\":618:640   */\n          swap1\n          pop\n            /* \"#utility.yul\":649:682   */\n          tag_26\n            /* \"#utility.yul\":676:681   */\n          dup2\n            /* \"#utility.yul\":649:682   */\n          tag_11\n          jump\t// in\n        tag_26:\n            /* \"#utility.yul\":545:688   */\n          swap3\n          swap2\n          pop\n          pop\n          jump\t// out\n            /* \"#utility.yul\":694:820   */\n        tag_13:\n            /* \"#utility.yul\":731:738   */\n          0x00\n            /* \"#utility.yul\":771:813   */\n          0xffffffffffffffffffffffffffffffffffffffff\n            /* \"#utility.yul\":764:769   */\n          dup3\n            /* \"#utility.yul\":760:814   */\n          and\n            /* \"#utility.yul\":749:814   */\n          swap1\n          pop\n            /* \"#utility.yul\":694:820   */\n          swap2\n          swap1\n          pop\n          jump\t// out\n            /* \"#utility.yul\":826:922   */\n        tag_14:\n            /* \"#utility.yul\":863:870   */\n          0x00\n            /* \"#utility.yul\":892:916   */\n          tag_29\n            /* \"#utility.yul\":910:915   */\n          dup3\n            /* \"#utility.yul\":892:916   */\n          tag_13\n          jump\t// in\n        tag_29:\n            /* \"#utility.yul\":881:916   */\n          swap1\n          pop\n            /* \"#utility.yul\":826:922   */\n          swap2\n          swap1\n          pop\n          jump\t// out\n            /* \"#utility.yul\":928:1050   */\n        tag_15:\n            /* \"#utility.yul\":1001:1025   */\n          tag_31\n            /* \"#utility.yul\":1019:1024   */\n          dup2\n            /* \"#utility.yul\":1001:1025   */\n          tag_14\n          jump\t// in\n        tag_31:\n            /* \"#utility.yul\":994:999   */\n          dup2\n            /* \"#utility.yul\":991:1026   */\n          eq\n            /* \"#utility.yul\":981:1044   */\n          tag_32\n          jumpi\n            /* \"#utility.yul\":1040:1041   */\n          0x00\n            /* \"#utility.yul\":1037:1038   */\n          dup1\n            /* \"#utility.yul\":1030:1042   */\n          revert\n            /* \"#utility.yul\":981:1044   */\n        tag_32:\n            /* \"#utility.yul\":928:1050   */\n          pop\n          jump\t// out\n            /* \"#utility.yul\":1056:1199   */\n        tag_16:\n            /* \"#utility.yul\":1113:1118   */\n          0x00\n            /* \"#utility.yul\":1144:1150   */\n          dup2\n            /* \"#utility.yul\":1138:1151   */\n          mload\n            /* \"#utility.yul\":1129:1151   */\n          swap1\n          pop\n            /* \"#utility.yul\":1160:1193   */\n          tag_34\n            /* \"#utility.yul\":1187:1192   */\n          dup2\n            /* \"#utility.yul\":1160:1193   */\n          tag_15\n          jump\t// in\n        tag_34:\n            /* \"#utility.yul\":1056:1199   */\n          swap3\n          swap2\n          pop\n          pop\n          jump\t// out\n            /* \"#utility.yul\":1205:1712   */\n        tag_3:\n            /* \"#utility.yul\":1284:1290   */\n          0x00\n            /* \"#utility.yul\":1292:1298   */\n          dup1\n            /* \"#utility.yul\":1341:1343   */\n          0x40\n            /* \"#utility.yul\":1329:1338   */\n          dup4\n            /* \"#utility.yul\":1320:1327   */\n          dup6\n            /* \"#utility.yul\":1316:1339   */\n          sub\n            /* \"#utility.yul\":1312:1344   */\n          slt\n            /* \"#utility.yul\":1309:1428   */\n          iszero\n          tag_36\n          jumpi\n            /* \"#utility.yul\":1347:1426   */\n          tag_37\n          tag_8\n          jump\t// in\n        tag_37:\n            /* \"#utility.yul\":1309:1428   */\n        tag_36:\n            /* \"#utility.yul\":1467:1468   */\n          0x00\n            /* \"#utility.yul\":1492:1556   */\n          tag_38\n            /* \"#utility.yul\":1548:1555   */\n          dup6\n            /* \"#utility.yul\":1539:1545   */\n          dup3\n            /* \"#utility.yul\":1528:1537   */\n          dup7\n            /* \"#utility.yul\":1524:1546   */\n          add\n            /* \"#utility.yul\":1492:1556   */\n          tag_12\n          jump\t// in\n        tag_38:\n            /* \"#utility.yul\":1482:1556   */\n          swap3\n          pop\n            /* \"#utility.yul\":1438:1566   */\n          pop\n            /* \"#utility.yul\":1605:1607   */\n          0x20\n            /* \"#utility.yul\":1631:1695   */\n          tag_39\n            /* \"#utility.yul\":1687:1694   */\n          dup6\n            /* \"#utility.yul\":1678:1684   */\n          dup3\n            /* \"#utility.yul\":1667:1676   */\n          dup7\n            /* \"#utility.yul\":1663:1685   */\n          add\n            /* \"#utility.yul\":1631:1695   */\n          tag_16\n          jump\t// in\n        tag_39:\n            /* \"#utility.yul\":1621:1695   */\n          swap2\n          pop\n            /* \"#utility.yul\":1576:1705   */\n          pop\n            /* \"#utility.yul\":1205:1712   */\n          swap3\n          pop\n          swap3\n          swap1\n          pop\n          jump\t// out\n            /* \"campaign.sol\":395:2706  contract Campaign {... */\n        tag_6:\n          dataSize(sub_0)\n          dup1\n          dataOffset(sub_0)\n          0x00\n          codecopy\n          0x00\n          return\n        stop\n\n        sub_0: assembly {\n                /* \"campaign.sol\":395:2706  contract Campaign {... */\n              mstore(0x40, 0x80)\n              jumpi(tag_1, lt(calldatasize, 0x04))\n              shr(0xe0, calldataload(0x00))\n              dup1\n              0x82fde093\n              gt\n              tag_14\n              jumpi\n              dup1\n              0x82fde093\n              eq\n              tag_8\n              jumpi\n              dup1\n              0x8a9cfd55\n              eq\n              tag_9\n              jumpi\n              dup1\n              0x937e09b1\n              eq\n              tag_10\n              jumpi\n              dup1\n              0xd7bb99ba\n              eq\n              tag_11\n              jumpi\n              dup1\n              0xd7d1bbdb\n              eq\n              tag_12\n              jumpi\n              dup1\n              0xfbfa4b7f\n              eq\n              tag_13\n              jumpi\n              jump(tag_1)\n            tag_14:\n              dup1\n              0x03441006\n              eq\n              tag_2\n              jumpi\n              dup1\n              0x0a144391\n              eq\n              tag_3\n              jumpi\n              dup1\n              0x0c611f24\n              eq\n              tag_4\n              jumpi\n              dup1\n              0x3410452a\n              eq\n              tag_5\n              jumpi\n              dup1\n              0x481c6a75\n              eq\n              tag_6\n              jumpi\n              dup1\n              0x81d12c58\n              eq\n              tag_7\n              jumpi\n            tag_1:\n              0x00\n              dup1\n              revert\n                /* \"campaign.sol\":2060:2338  function finalizeRequest(uint index) public restricted {... */\n            tag_2:\n              callvalue\n              dup1\n              iszero\n              tag_15\n              jumpi\n              0x00\n              dup1\n              revert\n            tag_15:\n              pop\n              tag_16\n              0x04\n              dup1\n              calldatasize\n              sub\n              dup2\n              add\n              swap1\n              tag_17\n              swap2\n              swap1\n              tag_18\n              jump\t// in\n            tag_17:\n              tag_19\n              jump\t// in\n            tag_16:\n              stop\n                /* \"campaign.sol\":794:835  mapping(address => bool) public approvers */\n            tag_3:\n              callvalue\n              dup1\n              iszero\n              tag_20\n              jumpi\n              0x00\n              dup1\n              revert\n            tag_20:\n              pop\n              tag_21\n              0x04\n              dup1\n              calldatasize\n              sub\n              dup2\n              add\n              swap1\n              tag_22\n              swap2\n              swap1\n              tag_23\n              jump\t// in\n            tag_22:\n              tag_24\n              jump\t// in\n            tag_21:\n              mload(0x40)\n              tag_25\n              swap2\n              swap1\n              tag_26\n              jump\t// in\n            tag_25:\n              mload(0x40)\n              dup1\n              swap2\n              sub\n              swap1\n              return\n                /* \"campaign.sol\":2344:2606  function getCampaignDetails() public view returns (uint, uint, uint, uint, address) {... */\n            tag_4:\n              callvalue\n              dup1\n              iszero\n              tag_27\n              jumpi\n              0x00\n              dup1\n              revert\n            tag_27:\n              pop\n              tag_28\n              tag_29\n              jump\t// in\n            tag_28:\n              mload(0x40)\n              tag_30\n              swap6\n              swap5\n              swap4\n              swap3\n              swap2\n              swap1\n              tag_31\n              jump\t// in\n            tag_30:\n              mload(0x40)\n              dup1\n              swap2\n              sub\n              swap1\n              return\n                /* \"campaign.sol\":2612:2704  function getRequestsCount() public view returns (uint) {... */\n            tag_5:\n              callvalue\n              dup1\n              iszero\n              tag_32\n              jumpi\n              0x00\n              dup1\n              revert\n            tag_32:\n              pop\n              tag_33\n              tag_34\n              jump\t// in\n            tag_33:\n              mload(0x40)\n              tag_35\n              swap2\n              swap1\n              tag_36\n              jump\t// in\n            tag_35:\n              mload(0x40)\n              dup1\n              swap2\n              sub\n              swap1\n              return\n                /* \"campaign.sol\":629:651  address public manager */\n            tag_6:\n              callvalue\n              dup1\n              iszero\n              tag_37\n              jumpi\n              0x00\n              dup1\n              revert\n            tag_37:\n              pop\n              tag_38\n              tag_39\n              jump\t// in\n            tag_38:\n              mload(0x40)\n              tag_40\n              swap2\n              swap1\n              tag_41\n              jump\t// in\n            tag_40:\n              mload(0x40)\n              dup1\n              swap2\n              sub\n              swap1\n              return\n                /* \"campaign.sol\":841:881  mapping(uint => Request) public requests */\n            tag_7:\n              callvalue\n              dup1\n              iszero\n              tag_42\n              jumpi\n              0x00\n              dup1\n              revert\n            tag_42:\n              pop\n              tag_43\n              0x04\n              dup1\n              calldatasize\n              sub\n              dup2\n              add\n              swap1\n              tag_44\n              swap2\n              swap1\n              tag_18\n              jump\t// in\n            tag_44:\n              tag_45\n              jump\t// in\n            tag_43:\n              mload(0x40)\n              tag_46\n              swap6\n              swap5\n              swap4\n              swap3\n              swap2\n              swap1\n              tag_47\n              jump\t// in\n            tag_46:\n              mload(0x40)\n              dup1\n              swap2\n              sub\n              swap1\n              return\n                /* \"campaign.sol\":699:725  uint public approversCount */\n            tag_8:\n              callvalue\n              dup1\n              iszero\n              tag_48\n              jumpi\n              0x00\n              dup1\n              revert\n            tag_48:\n              pop\n              tag_49\n              tag_50\n              jump\t// in\n            tag_49:\n              mload(0x40)\n              tag_51\n              swap2\n              swap1\n              tag_36\n              jump\t// in\n            tag_51:\n              mload(0x40)\n              dup1\n              swap2\n              sub\n              swap1\n              return\n                /* \"campaign.sol\":1343:1777  function createRequest(string memory description, uint value, address payable recipient) public restricted {... */\n            tag_9:\n              callvalue\n              dup1\n              iszero\n              tag_52\n              jumpi\n              0x00\n              dup1\n              revert\n            tag_52:\n              pop\n              tag_53\n              0x04\n              dup1\n              calldatasize\n              sub\n              dup2\n              add\n              swap1\n              tag_54\n              swap2\n              swap1\n              tag_55\n              jump\t// in\n            tag_54:\n              tag_56\n              jump\t// in\n            tag_53:\n              stop\n                /* \"campaign.sol\":662:693  uint public minimumContribution */\n            tag_10:\n              callvalue\n              dup1\n              iszero\n              tag_57\n              jumpi\n              0x00\n              dup1\n              revert\n            tag_57:\n              pop\n              tag_58\n              tag_59\n              jump\t// in\n            tag_58:\n              mload(0x40)\n              tag_60\n              swap2\n              swap1\n              tag_36\n              jump\t// in\n            tag_60:\n              mload(0x40)\n              dup1\n              swap2\n              sub\n              swap1\n              return\n                /* \"campaign.sol\":1133:1333  function contribute() public payable {... */\n            tag_11:\n              tag_61\n              tag_62\n              jump\t// in\n            tag_61:\n              stop\n                /* \"campaign.sol\":1787:2050  function approveRequest(uint index) public {... */\n            tag_12:\n              callvalue\n              dup1\n              iszero\n              tag_63\n              jumpi\n              0x00\n              dup1\n              revert\n            tag_63:\n              pop\n              tag_64\n              0x04\n              dup1\n              calldatasize\n              sub\n              dup2\n              add\n              swap1\n              tag_65\n              swap2\n              swap1\n              tag_18\n              jump\t// in\n            tag_65:\n              tag_66\n              jump\t// in\n            tag_64:\n              stop\n                /* \"campaign.sol\":731:756  uint public requestsCount */\n            tag_13:\n              callvalue\n              dup1\n              iszero\n              tag_67\n              jumpi\n              0x00\n              dup1\n              revert\n            tag_67:\n              pop\n              tag_68\n              tag_69\n              jump\t// in\n            tag_68:\n              mload(0x40)\n              tag_70\n              swap2\n              swap1\n              tag_36\n              jump\t// in\n            tag_70:\n              mload(0x40)\n              dup1\n              swap2\n              sub\n              swap1\n              return\n                /* \"campaign.sol\":2060:2338  function finalizeRequest(uint index) public restricted {... */\n            tag_19:\n                /* \"campaign.sol\":944:951  manager */\n              0x00\n              dup1\n              sload\n              swap1\n              0x0100\n              exp\n              swap1\n              div\n              0xffffffffffffffffffffffffffffffffffffffff\n              and\n                /* \"campaign.sol\":930:951  msg.sender == manager */\n              0xffffffffffffffffffffffffffffffffffffffff\n              and\n                /* \"campaign.sol\":930:940  msg.sender */\n              caller\n                /* \"campaign.sol\":930:951  msg.sender == manager */\n              0xffffffffffffffffffffffffffffffffffffffff\n              and\n              eq\n                /* \"campaign.sol\":922:979  require(msg.sender == manager, \"manager privileges only\") */\n              tag_72\n              jumpi\n              mload(0x40)\n              0x08c379a000000000000000000000000000000000000000000000000000000000\n              dup2\n              mstore\n              0x04\n              add\n              tag_73\n              swap1\n              tag_74\n              jump\t// in\n            tag_73:\n              mload(0x40)\n              dup1\n              swap2\n              sub\n              swap1\n              revert\n            tag_72:\n                /* \"campaign.sol\":2125:2142  Request storage r */\n              0x00\n                /* \"campaign.sol\":2145:2153  requests */\n              0x06\n                /* \"campaign.sol\":2145:2160  requests[index] */\n              0x00\n                /* \"campaign.sol\":2154:2159  index */\n              dup4\n                /* \"campaign.sol\":2145:2160  requests[index] */\n              dup2\n              mstore\n              0x20\n              add\n              swap1\n              dup2\n              mstore\n              0x20\n              add\n              0x00\n              keccak256\n                /* \"campaign.sol\":2125:2160  Request storage r = requests[index] */\n              swap1\n              pop\n                /* \"campaign.sol\":2223:2224  2 */\n              0x02\n                /* \"campaign.sol\":2206:2220  approversCount */\n              dup1\n              sload\n                /* \"campaign.sol\":2206:2224  approversCount / 2 */\n              tag_76\n              swap2\n              swap1\n              tag_77\n              jump\t// in\n            tag_76:\n                /* \"campaign.sol\":2187:2188  r */\n              dup2\n                /* \"campaign.sol\":2187:2202  r.approvalCount */\n              0x03\n              add\n              sload\n                /* \"campaign.sol\":2187:2225  r.approvalCount > (approversCount / 2) */\n              gt\n                /* \"campaign.sol\":2179:2226  require(r.approvalCount > (approversCount / 2)) */\n              tag_78\n              jumpi\n              0x00\n              dup1\n              revert\n            tag_78:\n                /* \"campaign.sol\":2245:2246  r */\n              dup1\n                /* \"campaign.sol\":2245:2255  r.complete */\n              0x04\n              add\n              0x00\n              swap1\n              sload\n              swap1\n              0x0100\n              exp\n              swap1\n              div\n              0xff\n              and\n                /* \"campaign.sol\":2244:2255  !r.complete */\n              iszero\n                /* \"campaign.sol\":2236:2256  require(!r.complete) */\n              tag_79\n              jumpi\n              0x00\n              dup1\n              revert\n            tag_79:\n                /* \"campaign.sol\":2275:2276  r */\n              dup1\n                /* \"campaign.sol\":2275:2286  r.recipient */\n              0x00\n              add\n              0x00\n              swap1\n              sload\n              swap1\n              0x0100\n              exp\n              swap1\n              div\n              0xffffffffffffffffffffffffffffffffffffffff\n              and\n                /* \"campaign.sol\":2275:2295  r.recipient.transfer */\n              0xffffffffffffffffffffffffffffffffffffffff\n              and\n                /* \"campaign.sol\":2275:2304  r.recipient.transfer(r.value) */\n              0x08fc\n                /* \"campaign.sol\":2296:2297  r */\n              dup3\n                /* \"campaign.sol\":2296:2303  r.value */\n              0x02\n              add\n              sload\n                /* \"campaign.sol\":2275:2304  r.recipient.transfer(r.value) */\n              swap1\n              dup2\n              iszero\n              mul\n              swap1\n              mload(0x40)\n              0x00\n              mload(0x40)\n              dup1\n              dup4\n              sub\n              dup2\n              dup6\n              dup9\n              dup9\n              call\n              swap4\n              pop\n              pop\n              pop\n              pop\n              iszero\n              dup1\n              iszero\n              tag_81\n              jumpi\n              returndatasize\n              0x00\n              dup1\n              returndatacopy\n              revert(0x00, returndatasize)\n            tag_81:\n              pop\n                /* \"campaign.sol\":2327:2331  true */\n              0x01\n                /* \"campaign.sol\":2314:2315  r */\n              dup2\n                /* \"campaign.sol\":2314:2324  r.complete */\n              0x04\n              add\n              0x00\n                /* \"campaign.sol\":2314:2331  r.complete = true */\n              0x0100\n              exp\n              dup2\n              sload\n              dup2\n              0xff\n              mul\n              not\n              and\n              swap1\n              dup4\n              iszero\n              iszero\n              mul\n              or\n              swap1\n              sstore\n              pop\n                /* \"campaign.sol\":2115:2338  {... */\n              pop\n                /* \"campaign.sol\":2060:2338  function finalizeRequest(uint index) public restricted {... */\n              pop\n              jump\t// out\n                /* \"campaign.sol\":794:835  mapping(address => bool) public approvers */\n            tag_24:\n              mstore(0x20, 0x05)\n              dup1\n              0x00\n              mstore\n              keccak256(0x00, 0x40)\n              0x00\n              swap2\n              pop\n              sload\n              swap1\n              0x0100\n              exp\n              swap1\n              div\n              0xff\n              and\n              dup2\n              jump\t// out\n                /* \"campaign.sol\":2344:2606  function getCampaignDetails() public view returns (uint, uint, uint, uint, address) {... */\n            tag_29:\n                /* \"campaign.sol\":2395:2399  uint */\n              0x00\n                /* \"campaign.sol\":2401:2405  uint */\n              dup1\n                /* \"campaign.sol\":2407:2411  uint */\n              0x00\n                /* \"campaign.sol\":2413:2417  uint */\n              dup1\n                /* \"campaign.sol\":2419:2426  address */\n              0x00\n                /* \"campaign.sol\":2459:2478  minimumContribution */\n              sload(0x01)\n                /* \"campaign.sol\":2492:2513  address(this).balance */\n              selfbalance\n                /* \"campaign.sol\":2527:2540  requestsCount */\n              sload(0x03)\n                /* \"campaign.sol\":2554:2568  approversCount */\n              sload(0x02)\n                /* \"campaign.sol\":2582:2589  manager */\n              0x00\n              dup1\n              sload\n              swap1\n              0x0100\n              exp\n              swap1\n              div\n              0xffffffffffffffffffffffffffffffffffffffff\n              and\n                /* \"campaign.sol\":2438:2599  return (... */\n              swap5\n              pop\n              swap5\n              pop\n              swap5\n              pop\n              swap5\n              pop\n              swap5\n              pop\n                /* \"campaign.sol\":2344:2606  function getCampaignDetails() public view returns (uint, uint, uint, uint, address) {... */\n              swap1\n              swap2\n              swap3\n              swap4\n              swap5\n              jump\t// out\n                /* \"campaign.sol\":2612:2704  function getRequestsCount() public view returns (uint) {... */\n            tag_34:\n                /* \"campaign.sol\":2661:2665  uint */\n              0x00\n                /* \"campaign.sol\":2684:2697  requestsCount */\n              sload(0x03)\n                /* \"campaign.sol\":2677:2697  return requestsCount */\n              swap1\n              pop\n                /* \"campaign.sol\":2612:2704  function getRequestsCount() public view returns (uint) {... */\n              swap1\n              jump\t// out\n                /* \"campaign.sol\":629:651  address public manager */\n            tag_39:\n              0x00\n              dup1\n              sload\n              swap1\n              0x0100\n              exp\n              swap1\n              div\n              0xffffffffffffffffffffffffffffffffffffffff\n              and\n              dup2\n              jump\t// out\n                /* \"campaign.sol\":841:881  mapping(uint => Request) public requests */\n            tag_45:\n              mstore(0x20, 0x06)\n              dup1\n              0x00\n              mstore\n              keccak256(0x00, 0x40)\n              0x00\n              swap2\n              pop\n              swap1\n              pop\n              dup1\n              0x00\n              add\n              0x00\n              swap1\n              sload\n              swap1\n              0x0100\n              exp\n              swap1\n              div\n              0xffffffffffffffffffffffffffffffffffffffff\n              and\n              swap1\n              dup1\n              0x01\n              add\n              dup1\n              sload\n              tag_84\n              swap1\n              tag_85\n              jump\t// in\n            tag_84:\n              dup1\n              0x1f\n              add\n              0x20\n              dup1\n              swap2\n              div\n              mul\n              0x20\n              add\n              mload(0x40)\n              swap1\n              dup2\n              add\n              0x40\n              mstore\n              dup1\n              swap3\n              swap2\n              swap1\n              dup2\n              dup2\n              mstore\n              0x20\n              add\n              dup3\n              dup1\n              sload\n              tag_86\n              swap1\n              tag_85\n              jump\t// in\n            tag_86:\n              dup1\n              iszero\n              tag_87\n              jumpi\n              dup1\n              0x1f\n              lt\n              tag_88\n              jumpi\n              0x0100\n              dup1\n              dup4\n              sload\n              div\n              mul\n              dup4\n              mstore\n              swap2\n              0x20\n              add\n              swap2\n              jump(tag_87)\n            tag_88:\n              dup3\n              add\n              swap2\n              swap1\n              0x00\n              mstore\n              keccak256(0x00, 0x20)\n              swap1\n            tag_89:\n              dup2\n              sload\n              dup2\n              mstore\n              swap1\n              0x01\n              add\n              swap1\n              0x20\n              add\n              dup1\n              dup4\n              gt\n              tag_89\n              jumpi\n              dup3\n              swap1\n              sub\n              0x1f\n              and\n              dup3\n              add\n              swap2\n            tag_87:\n              pop\n              pop\n              pop\n              pop\n              pop\n              swap1\n              dup1\n              0x02\n              add\n              sload\n              swap1\n              dup1\n              0x03\n              add\n              sload\n              swap1\n              dup1\n              0x04\n              add\n              0x00\n              swap1\n              sload\n              swap1\n              0x0100\n              exp\n              swap1\n              div\n              0xff\n              and\n              swap1\n              pop\n              dup6\n              jump\t// out\n                /* \"campaign.sol\":699:725  uint public approversCount */\n            tag_50:\n              sload(0x02)\n              dup2\n              jump\t// out\n                /* \"campaign.sol\":1343:1777  function createRequest(string memory description, uint value, address payable recipient) public restricted {... */\n            tag_56:\n                /* \"campaign.sol\":944:951  manager */\n              0x00\n              dup1\n              sload\n              swap1\n              0x0100\n              exp\n              swap1\n              div\n              0xffffffffffffffffffffffffffffffffffffffff\n              and\n                /* \"campaign.sol\":930:951  msg.sender == manager */\n              0xffffffffffffffffffffffffffffffffffffffff\n              and\n                /* \"campaign.sol\":930:940  msg.sender */\n              caller\n                /* \"campaign.sol\":930:951  msg.sender == manager */\n              0xffffffffffffffffffffffffffffffffffffffff\n              and\n              eq\n                /* \"campaign.sol\":922:979  require(msg.sender == manager, \"manager privileges only\") */\n              tag_91\n              jumpi\n              mload(0x40)\n              0x08c379a000000000000000000000000000000000000000000000000000000000\n              dup2\n              mstore\n              0x04\n              add\n              tag_92\n              swap1\n              tag_74\n              jump\t// in\n            tag_92:\n              mload(0x40)\n              dup1\n              swap2\n              sub\n              swap1\n              revert\n            tag_91:\n                /* \"campaign.sol\":1477:1498  address(this).balance */\n              selfbalance\n                /* \"campaign.sol\":1468:1473  value */\n              dup3\n                /* \"campaign.sol\":1468:1498  value <= address(this).balance */\n              gt\n              iszero\n                /* \"campaign.sol\":1460:1499  require(value <= address(this).balance) */\n              tag_94\n              jumpi\n              0x00\n              dup1\n              revert\n            tag_94:\n                /* \"campaign.sol\":1509:1526  Request storage r */\n              0x00\n                /* \"campaign.sol\":1529:1537  requests */\n              0x06\n                /* \"campaign.sol\":1529:1551  requests[requestIndex] */\n              0x00\n                /* \"campaign.sol\":1538:1550  requestIndex */\n              sload(0x04)\n                /* \"campaign.sol\":1529:1551  requests[requestIndex] */\n              dup2\n              mstore\n              0x20\n              add\n              swap1\n              dup2\n              mstore\n              0x20\n              add\n              0x00\n              keccak256\n                /* \"campaign.sol\":1509:1551  Request storage r = requests[requestIndex] */\n              swap1\n              pop\n                /* \"campaign.sol\":1586:1597  description */\n              dup4\n                /* \"campaign.sol\":1570:1571  r */\n              dup2\n                /* \"campaign.sol\":1570:1583  r.description */\n              0x01\n              add\n                /* \"campaign.sol\":1570:1597  r.description = description */\n              swap1\n              dup1\n              mload\n              swap1\n              0x20\n              add\n              swap1\n              tag_95\n              swap3\n              swap2\n              swap1\n              tag_96\n              jump\t// in\n            tag_95:\n              pop\n                /* \"campaign.sol\":1621:1630  recipient */\n              dup2\n                /* \"campaign.sol\":1607:1608  r */\n              dup2\n                /* \"campaign.sol\":1607:1618  r.recipient */\n              0x00\n              add\n              0x00\n                /* \"campaign.sol\":1607:1630  r.recipient = recipient */\n              0x0100\n              exp\n              dup2\n              sload\n              dup2\n              0xffffffffffffffffffffffffffffffffffffffff\n              mul\n              not\n              and\n              swap1\n              dup4\n              0xffffffffffffffffffffffffffffffffffffffff\n              and\n              mul\n              or\n              swap1\n              sstore\n              pop\n                /* \"campaign.sol\":1650:1655  value */\n              dup3\n                /* \"campaign.sol\":1640:1641  r */\n              dup2\n                /* \"campaign.sol\":1640:1647  r.value */\n              0x02\n              add\n                /* \"campaign.sol\":1640:1655  r.value = value */\n              dup2\n              swap1\n              sstore\n              pop\n                /* \"campaign.sol\":1678:1683  false */\n              0x00\n                /* \"campaign.sol\":1665:1666  r */\n              dup2\n                /* \"campaign.sol\":1665:1675  r.complete */\n              0x04\n              add\n              0x00\n                /* \"campaign.sol\":1665:1683  r.complete = false */\n              0x0100\n              exp\n              dup2\n              sload\n              dup2\n              0xff\n              mul\n              not\n              and\n              swap1\n              dup4\n              iszero\n              iszero\n              mul\n              or\n              swap1\n              sstore\n              pop\n                /* \"campaign.sol\":1711:1712  0 */\n              0x00\n                /* \"campaign.sol\":1693:1694  r */\n              dup2\n                /* \"campaign.sol\":1693:1708  r.approvalCount */\n              0x03\n              add\n                /* \"campaign.sol\":1693:1712  r.approvalCount = 0 */\n              dup2\n              swap1\n              sstore\n              pop\n                /* \"campaign.sol\":1731:1743  requestIndex */\n              0x04\n              0x00\n                /* \"campaign.sol\":1731:1745  requestIndex++ */\n              dup2\n              sload\n              dup1\n              swap3\n              swap2\n              swap1\n              tag_97\n              swap1\n              tag_98\n              jump\t// in\n            tag_97:\n              swap2\n              swap1\n              pop\n              sstore\n              pop\n                /* \"campaign.sol\":1755:1768  requestsCount */\n              0x03\n              0x00\n                /* \"campaign.sol\":1755:1770  requestsCount++ */\n              dup2\n              sload\n              dup1\n              swap3\n              swap2\n              swap1\n              tag_99\n              swap1\n              tag_98\n              jump\t// in\n            tag_99:\n              swap2\n              swap1\n              pop\n              sstore\n              pop\n                /* \"campaign.sol\":1450:1777  {... */\n              pop\n                /* \"campaign.sol\":1343:1777  function createRequest(string memory description, uint value, address payable recipient) public restricted {... */\n              pop\n              pop\n              pop\n              jump\t// out\n                /* \"campaign.sol\":662:693  uint public minimumContribution */\n            tag_59:\n              sload(0x01)\n              dup2\n              jump\t// out\n                /* \"campaign.sol\":1133:1333  function contribute() public payable {... */\n            tag_62:\n                /* \"campaign.sol\":1200:1219  minimumContribution */\n              sload(0x01)\n                /* \"campaign.sol\":1188:1197  msg.value */\n              callvalue\n                /* \"campaign.sol\":1188:1219  msg.value > minimumContribution */\n              gt\n                /* \"campaign.sol\":1180:1253  require(msg.value > minimumContribution, \"minimum contribution required\") */\n              tag_101\n              jumpi\n              mload(0x40)\n              0x08c379a000000000000000000000000000000000000000000000000000000000\n              dup2\n              mstore\n              0x04\n              add\n              tag_102\n              swap1\n              tag_103\n              jump\t// in\n            tag_102:\n              mload(0x40)\n              dup1\n              swap2\n              sub\n              swap1\n              revert\n            tag_101:\n                /* \"campaign.sol\":1296:1300  true */\n              0x01\n                /* \"campaign.sol\":1272:1281  approvers */\n              0x05\n                /* \"campaign.sol\":1272:1293  approvers[msg.sender] */\n              0x00\n                /* \"campaign.sol\":1282:1292  msg.sender */\n              caller\n                /* \"campaign.sol\":1272:1293  approvers[msg.sender] */\n              0xffffffffffffffffffffffffffffffffffffffff\n              and\n              0xffffffffffffffffffffffffffffffffffffffff\n              and\n              dup2\n              mstore\n              0x20\n              add\n              swap1\n              dup2\n              mstore\n              0x20\n              add\n              0x00\n              keccak256\n              0x00\n                /* \"campaign.sol\":1272:1300  approvers[msg.sender] = true */\n              0x0100\n              exp\n              dup2\n              sload\n              dup2\n              0xff\n              mul\n              not\n              and\n              swap1\n              dup4\n              iszero\n              iszero\n              mul\n              or\n              swap1\n              sstore\n              pop\n                /* \"campaign.sol\":1310:1324  approversCount */\n              0x02\n              0x00\n                /* \"campaign.sol\":1310:1326  approversCount++ */\n              dup2\n              sload\n              dup1\n              swap3\n              swap2\n              swap1\n              tag_104\n              swap1\n              tag_98\n              jump\t// in\n            tag_104:\n              swap2\n              swap1\n              pop\n              sstore\n              pop\n                /* \"campaign.sol\":1133:1333  function contribute() public payable {... */\n              jump\t// out\n                /* \"campaign.sol\":1787:2050  function approveRequest(uint index) public {... */\n            tag_66:\n                /* \"campaign.sol\":1840:1857  Request storage r */\n              0x00\n                /* \"campaign.sol\":1860:1868  requests */\n              0x06\n                /* \"campaign.sol\":1860:1875  requests[index] */\n              0x00\n                /* \"campaign.sol\":1869:1874  index */\n              dup4\n                /* \"campaign.sol\":1860:1875  requests[index] */\n              dup2\n              mstore\n              0x20\n              add\n              swap1\n              dup2\n              mstore\n              0x20\n              add\n              0x00\n              keccak256\n                /* \"campaign.sol\":1840:1875  Request storage r = requests[index] */\n              swap1\n              pop\n                /* \"campaign.sol\":1902:1911  approvers */\n              0x05\n                /* \"campaign.sol\":1902:1923  approvers[msg.sender] */\n              0x00\n                /* \"campaign.sol\":1912:1922  msg.sender */\n              caller\n                /* \"campaign.sol\":1902:1923  approvers[msg.sender] */\n              0xffffffffffffffffffffffffffffffffffffffff\n              and\n              0xffffffffffffffffffffffffffffffffffffffff\n              and\n              dup2\n              mstore\n              0x20\n              add\n              swap1\n              dup2\n              mstore\n              0x20\n              add\n              0x00\n              keccak256\n              0x00\n              swap1\n              sload\n              swap1\n              0x0100\n              exp\n              swap1\n              div\n              0xff\n              and\n                /* \"campaign.sol\":1894:1924  require(approvers[msg.sender]) */\n              tag_106\n              jumpi\n              0x00\n              dup1\n              revert\n            tag_106:\n                /* \"campaign.sol\":1943:1944  r */\n              dup1\n                /* \"campaign.sol\":1943:1954  r.approvals */\n              0x05\n              add\n                /* \"campaign.sol\":1943:1966  r.approvals[msg.sender] */\n              0x00\n                /* \"campaign.sol\":1955:1965  msg.sender */\n              caller\n                /* \"campaign.sol\":1943:1966  r.approvals[msg.sender] */\n              0xffffffffffffffffffffffffffffffffffffffff\n              and\n              0xffffffffffffffffffffffffffffffffffffffff\n              and\n              dup2\n              mstore\n              0x20\n              add\n              swap1\n              dup2\n              mstore\n              0x20\n              add\n              0x00\n              keccak256\n              0x00\n              swap1\n              sload\n              swap1\n              0x0100\n              exp\n              swap1\n              div\n              0xff\n              and\n                /* \"campaign.sol\":1942:1966  !r.approvals[msg.sender] */\n              iszero\n                /* \"campaign.sol\":1934:1967  require(!r.approvals[msg.sender]) */\n              tag_107\n              jumpi\n              0x00\n              dup1\n              revert\n            tag_107:\n                /* \"campaign.sol\":2012:2016  true */\n              0x01\n                /* \"campaign.sol\":1986:1987  r */\n              dup2\n                /* \"campaign.sol\":1986:1997  r.approvals */\n              0x05\n              add\n                /* \"campaign.sol\":1986:2009  r.approvals[msg.sender] */\n              0x00\n                /* \"campaign.sol\":1998:2008  msg.sender */\n              caller\n                /* \"campaign.sol\":1986:2009  r.approvals[msg.sender] */\n              0xffffffffffffffffffffffffffffffffffffffff\n              and\n              0xffffffffffffffffffffffffffffffffffffffff\n              and\n              dup2\n              mstore\n              0x20\n              add\n              swap1\n              dup2\n              mstore\n              0x20\n              add\n              0x00\n              keccak256\n              0x00\n                /* \"campaign.sol\":1986:2016  r.approvals[msg.sender] = true */\n              0x0100\n              exp\n              dup2\n              sload\n              dup2\n              0xff\n              mul\n              not\n              and\n              swap1\n              dup4\n              iszero\n              iszero\n              mul\n              or\n              swap1\n              sstore\n              pop\n                /* \"campaign.sol\":2026:2027  r */\n              dup1\n                /* \"campaign.sol\":2026:2041  r.approvalCount */\n              0x03\n              add\n              0x00\n                /* \"campaign.sol\":2026:2043  r.approvalCount++ */\n              dup2\n              sload\n              dup1\n              swap3\n              swap2\n              swap1\n              tag_108\n              swap1\n              tag_98\n              jump\t// in\n            tag_108:\n              swap2\n              swap1\n              pop\n              sstore\n              pop\n                /* \"campaign.sol\":1830:2050  {... */\n              pop\n                /* \"campaign.sol\":1787:2050  function approveRequest(uint index) public {... */\n              pop\n              jump\t// out\n                /* \"campaign.sol\":731:756  uint public requestsCount */\n            tag_69:\n              sload(0x03)\n              dup2\n              jump\t// out\n            tag_96:\n              dup3\n              dup1\n              sload\n              tag_109\n              swap1\n              tag_85\n              jump\t// in\n            tag_109:\n              swap1\n              0x00\n              mstore\n              keccak256(0x00, 0x20)\n              swap1\n              0x1f\n              add\n              0x20\n              swap1\n              div\n              dup2\n              add\n              swap3\n              dup3\n              tag_111\n              jumpi\n              0x00\n              dup6\n              sstore\n              jump(tag_110)\n            tag_111:\n              dup3\n              0x1f\n              lt\n              tag_112\n              jumpi\n              dup1\n              mload\n              not(0xff)\n              and\n              dup4\n              dup1\n              add\n              or\n              dup6\n              sstore\n              jump(tag_110)\n            tag_112:\n              dup3\n              dup1\n              add\n              0x01\n              add\n              dup6\n              sstore\n              dup3\n              iszero\n              tag_110\n              jumpi\n              swap2\n              dup3\n              add\n            tag_113:\n              dup3\n              dup2\n              gt\n              iszero\n              tag_114\n              jumpi\n              dup3\n              mload\n              dup3\n              sstore\n              swap2\n              0x20\n              add\n              swap2\n              swap1\n              0x01\n              add\n              swap1\n              jump(tag_113)\n            tag_114:\n            tag_110:\n              pop\n              swap1\n              pop\n              tag_115\n              swap2\n              swap1\n              tag_116\n              jump\t// in\n            tag_115:\n              pop\n              swap1\n              jump\t// out\n            tag_116:\n            tag_117:\n              dup1\n              dup3\n              gt\n              iszero\n              tag_118\n              jumpi\n              0x00\n              dup2\n              0x00\n              swap1\n              sstore\n              pop\n              0x01\n              add\n              jump(tag_117)\n            tag_118:\n              pop\n              swap1\n              jump\t// out\n                /* \"#utility.yul\":7:82   */\n            tag_119:\n                /* \"#utility.yul\":40:46   */\n              0x00\n                /* \"#utility.yul\":73:75   */\n              0x40\n                /* \"#utility.yul\":67:76   */\n              mload\n                /* \"#utility.yul\":57:76   */\n              swap1\n              pop\n                /* \"#utility.yul\":7:82   */\n              swap1\n              jump\t// out\n                /* \"#utility.yul\":88:205   */\n            tag_120:\n                /* \"#utility.yul\":197:198   */\n              0x00\n                /* \"#utility.yul\":194:195   */\n              dup1\n                /* \"#utility.yul\":187:199   */\n              revert\n                /* \"#utility.yul\":211:328   */\n            tag_121:\n                /* \"#utility.yul\":320:321   */\n              0x00\n                /* \"#utility.yul\":317:318   */\n              dup1\n                /* \"#utility.yul\":310:322   */\n              revert\n                /* \"#utility.yul\":334:411   */\n            tag_122:\n                /* \"#utility.yul\":371:378   */\n              0x00\n                /* \"#utility.yul\":400:405   */\n              dup2\n                /* \"#utility.yul\":389:405   */\n              swap1\n              pop\n                /* \"#utility.yul\":334:411   */\n              swap2\n              swap1\n              pop\n              jump\t// out\n                /* \"#utility.yul\":417:539   */\n            tag_123:\n                /* \"#utility.yul\":490:514   */\n              tag_164\n                /* \"#utility.yul\":508:513   */\n              dup2\n                /* \"#utility.yul\":490:514   */\n              tag_122\n              jump\t// in\n            tag_164:\n                /* \"#utility.yul\":483:488   */\n              dup2\n                /* \"#utility.yul\":480:515   */\n              eq\n                /* \"#utility.yul\":470:533   */\n              tag_165\n              jumpi\n                /* \"#utility.yul\":529:530   */\n              0x00\n                /* \"#utility.yul\":526:527   */\n              dup1\n                /* \"#utility.yul\":519:531   */\n              revert\n                /* \"#utility.yul\":470:533   */\n            tag_165:\n                /* \"#utility.yul\":417:539   */\n              pop\n              jump\t// out\n                /* \"#utility.yul\":545:684   */\n            tag_124:\n                /* \"#utility.yul\":591:596   */\n              0x00\n                /* \"#utility.yul\":629:635   */\n              dup2\n                /* \"#utility.yul\":616:636   */\n              calldataload\n                /* \"#utility.yul\":607:636   */\n              swap1\n              pop\n                /* \"#utility.yul\":645:678   */\n              tag_167\n                /* \"#utility.yul\":672:677   */\n              dup2\n                /* \"#utility.yul\":645:678   */\n              tag_123\n              jump\t// in\n            tag_167:\n                /* \"#utility.yul\":545:684   */\n              swap3\n              swap2\n              pop\n              pop\n              jump\t// out\n                /* \"#utility.yul\":690:1019   */\n            tag_18:\n                /* \"#utility.yul\":749:755   */\n              0x00\n                /* \"#utility.yul\":798:800   */\n              0x20\n                /* \"#utility.yul\":786:795   */\n              dup3\n                /* \"#utility.yul\":777:784   */\n              dup5\n                /* \"#utility.yul\":773:796   */\n              sub\n                /* \"#utility.yul\":769:801   */\n              slt\n                /* \"#utility.yul\":766:885   */\n              iszero\n              tag_169\n              jumpi\n                /* \"#utility.yul\":804:883   */\n              tag_170\n              tag_120\n              jump\t// in\n            tag_170:\n                /* \"#utility.yul\":766:885   */\n            tag_169:\n                /* \"#utility.yul\":924:925   */\n              0x00\n                /* \"#utility.yul\":949:1002   */\n              tag_171\n                /* \"#utility.yul\":994:1001   */\n              dup5\n                /* \"#utility.yul\":985:991   */\n              dup3\n                /* \"#utility.yul\":974:983   */\n              dup6\n                /* \"#utility.yul\":970:992   */\n              add\n                /* \"#utility.yul\":949:1002   */\n              tag_124\n              jump\t// in\n            tag_171:\n                /* \"#utility.yul\":939:1002   */\n              swap2\n              pop\n                /* \"#utility.yul\":895:1012   */\n              pop\n                /* \"#utility.yul\":690:1019   */\n              swap3\n              swap2\n              pop\n              pop\n              jump\t// out\n                /* \"#utility.yul\":1025:1151   */\n            tag_125:\n                /* \"#utility.yul\":1062:1069   */\n              0x00\n                /* \"#utility.yul\":1102:1144   */\n              0xffffffffffffffffffffffffffffffffffffffff\n                /* \"#utility.yul\":1095:1100   */\n              dup3\n                /* \"#utility.yul\":1091:1145   */\n              and\n                /* \"#utility.yul\":1080:1145   */\n              swap1\n              pop\n                /* \"#utility.yul\":1025:1151   */\n              swap2\n              swap1\n              pop\n              jump\t// out\n                /* \"#utility.yul\":1157:1253   */\n            tag_126:\n                /* \"#utility.yul\":1194:1201   */\n              0x00\n                /* \"#utility.yul\":1223:1247   */\n              tag_174\n                /* \"#utility.yul\":1241:1246   */\n              dup3\n                /* \"#utility.yul\":1223:1247   */\n              tag_125\n              jump\t// in\n            tag_174:\n                /* \"#utility.yul\":1212:1247   */\n              swap1\n              pop\n                /* \"#utility.yul\":1157:1253   */\n              swap2\n              swap1\n              pop\n              jump\t// out\n                /* \"#utility.yul\":1259:1381   */\n            tag_127:\n                /* \"#utility.yul\":1332:1356   */\n              tag_176\n                /* \"#utility.yul\":1350:1355   */\n              dup2\n                /* \"#utility.yul\":1332:1356   */\n              tag_126\n              jump\t// in\n            tag_176:\n                /* \"#utility.yul\":1325:1330   */\n              dup2\n                /* \"#utility.yul\":1322:1357   */\n              eq\n                /* \"#utility.yul\":1312:1375   */\n              tag_177\n              jumpi\n                /* \"#utility.yul\":1371:1372   */\n              0x00\n                /* \"#utility.yul\":1368:1369   */\n              dup1\n                /* \"#utility.yul\":1361:1373   */\n              revert\n                /* \"#utility.yul\":1312:1375   */\n            tag_177:\n                /* \"#utility.yul\":1259:1381   */\n              pop\n              jump\t// out\n                /* \"#utility.yul\":1387:1526   */\n            tag_128:\n                /* \"#utility.yul\":1433:1438   */\n              0x00\n                /* \"#utility.yul\":1471:1477   */\n              dup2\n                /* \"#utility.yul\":1458:1478   */\n              calldataload\n                /* \"#utility.yul\":1449:1478   */\n              swap1\n              pop\n                /* \"#utility.yul\":1487:1520   */\n              tag_179\n                /* \"#utility.yul\":1514:1519   */\n              dup2\n                /* \"#utility.yul\":1487:1520   */\n              tag_127\n              jump\t// in\n            tag_179:\n                /* \"#utility.yul\":1387:1526   */\n              swap3\n              swap2\n              pop\n              pop\n              jump\t// out\n                /* \"#utility.yul\":1532:1861   */\n            tag_23:\n                /* \"#utility.yul\":1591:1597   */\n              0x00\n                /* \"#utility.yul\":1640:1642   */\n              0x20\n                /* \"#utility.yul\":1628:1637   */\n              dup3\n                /* \"#utility.yul\":1619:1626   */\n              dup5\n                /* \"#utility.yul\":1615:1638   */\n              sub\n                /* \"#utility.yul\":1611:1643   */\n              slt\n                /* \"#utility.yul\":1608:1727   */\n              iszero\n              tag_181\n              jumpi\n                /* \"#utility.yul\":1646:1725   */\n              tag_182\n              tag_120\n              jump\t// in\n            tag_182:\n                /* \"#utility.yul\":1608:1727   */\n            tag_181:\n                /* \"#utility.yul\":1766:1767   */\n              0x00\n                /* \"#utility.yul\":1791:1844   */\n              tag_183\n                /* \"#utility.yul\":1836:1843   */\n              dup5\n                /* \"#utility.yul\":1827:1833   */\n              dup3\n                /* \"#utility.yul\":1816:1825   */\n              dup6\n                /* \"#utility.yul\":1812:1834   */\n              add\n                /* \"#utility.yul\":1791:1844   */\n              tag_128\n              jump\t// in\n            tag_183:\n                /* \"#utility.yul\":1781:1844   */\n              swap2\n              pop\n                /* \"#utility.yul\":1737:1854   */\n              pop\n                /* \"#utility.yul\":1532:1861   */\n              swap3\n              swap2\n              pop\n              pop\n              jump\t// out\n                /* \"#utility.yul\":1867:1957   */\n            tag_129:\n                /* \"#utility.yul\":1901:1908   */\n              0x00\n                /* \"#utility.yul\":1944:1949   */\n              dup2\n                /* \"#utility.yul\":1937:1950   */\n              iszero\n                /* \"#utility.yul\":1930:1951   */\n              iszero\n                /* \"#utility.yul\":1919:1951   */\n              swap1\n              pop\n                /* \"#utility.yul\":1867:1957   */\n              swap2\n              swap1\n              pop\n              jump\t// out\n                /* \"#utility.yul\":1963:2072   */\n            tag_130:\n                /* \"#utility.yul\":2044:2065   */\n              tag_186\n                /* \"#utility.yul\":2059:2064   */\n              dup2\n                /* \"#utility.yul\":2044:2065   */\n              tag_129\n              jump\t// in\n            tag_186:\n                /* \"#utility.yul\":2039:2042   */\n              dup3\n                /* \"#utility.yul\":2032:2066   */\n              mstore\n                /* \"#utility.yul\":1963:2072   */\n              pop\n              pop\n              jump\t// out\n                /* \"#utility.yul\":2078:2288   */\n            tag_26:\n                /* \"#utility.yul\":2165:2169   */\n              0x00\n                /* \"#utility.yul\":2203:2205   */\n              0x20\n                /* \"#utility.yul\":2192:2201   */\n              dup3\n                /* \"#utility.yul\":2188:2206   */\n              add\n                /* \"#utility.yul\":2180:2206   */\n              swap1\n              pop\n                /* \"#utility.yul\":2216:2281   */\n              tag_188\n                /* \"#utility.yul\":2278:2279   */\n              0x00\n                /* \"#utility.yul\":2267:2276   */\n              dup4\n                /* \"#utility.yul\":2263:2280   */\n              add\n                /* \"#utility.yul\":2254:2260   */\n              dup5\n                /* \"#utility.yul\":2216:2281   */\n              tag_130\n              jump\t// in\n            tag_188:\n                /* \"#utility.yul\":2078:2288   */\n              swap3\n              swap2\n              pop\n              pop\n              jump\t// out\n                /* \"#utility.yul\":2294:2412   */\n            tag_131:\n                /* \"#utility.yul\":2381:2405   */\n              tag_190\n                /* \"#utility.yul\":2399:2404   */\n              dup2\n                /* \"#utility.yul\":2381:2405   */\n              tag_122\n              jump\t// in\n            tag_190:\n                /* \"#utility.yul\":2376:2379   */\n              dup3\n                /* \"#utility.yul\":2369:2406   */\n              mstore\n                /* \"#utility.yul\":2294:2412   */\n              pop\n              pop\n              jump\t// out\n                /* \"#utility.yul\":2418:2536   */\n            tag_132:\n                /* \"#utility.yul\":2505:2529   */\n              tag_192\n                /* \"#utility.yul\":2523:2528   */\n              dup2\n                /* \"#utility.yul\":2505:2529   */\n              tag_126\n              jump\t// in\n            tag_192:\n                /* \"#utility.yul\":2500:2503   */\n              dup3\n                /* \"#utility.yul\":2493:2530   */\n              mstore\n                /* \"#utility.yul\":2418:2536   */\n              pop\n              pop\n              jump\t// out\n                /* \"#utility.yul\":2542:3206   */\n            tag_31:\n                /* \"#utility.yul\":2747:2751   */\n              0x00\n                /* \"#utility.yul\":2785:2788   */\n              0xa0\n                /* \"#utility.yul\":2774:2783   */\n              dup3\n                /* \"#utility.yul\":2770:2789   */\n              add\n                /* \"#utility.yul\":2762:2789   */\n              swap1\n              pop\n                /* \"#utility.yul\":2799:2870   */\n              tag_194\n                /* \"#utility.yul\":2867:2868   */\n              0x00\n                /* \"#utility.yul\":2856:2865   */\n              dup4\n                /* \"#utility.yul\":2852:2869   */\n              add\n                /* \"#utility.yul\":2843:2849   */\n              dup9\n                /* \"#utility.yul\":2799:2870   */\n              tag_131\n              jump\t// in\n            tag_194:\n                /* \"#utility.yul\":2880:2952   */\n              tag_195\n                /* \"#utility.yul\":2948:2950   */\n              0x20\n                /* \"#utility.yul\":2937:2946   */\n              dup4\n                /* \"#utility.yul\":2933:2951   */\n              add\n                /* \"#utility.yul\":2924:2930   */\n              dup8\n                /* \"#utility.yul\":2880:2952   */\n              tag_131\n              jump\t// in\n            tag_195:\n                /* \"#utility.yul\":2962:3034   */\n              tag_196\n                /* \"#utility.yul\":3030:3032   */\n              0x40\n                /* \"#utility.yul\":3019:3028   */\n              dup4\n                /* \"#utility.yul\":3015:3033   */\n              add\n                /* \"#utility.yul\":3006:3012   */\n              dup7\n                /* \"#utility.yul\":2962:3034   */\n              tag_131\n              jump\t// in\n            tag_196:\n                /* \"#utility.yul\":3044:3116   */\n              tag_197\n                /* \"#utility.yul\":3112:3114   */\n              0x60\n                /* \"#utility.yul\":3101:3110   */\n              dup4\n                /* \"#utility.yul\":3097:3115   */\n              add\n                /* \"#utility.yul\":3088:3094   */\n              dup6\n                /* \"#utility.yul\":3044:3116   */\n              tag_131\n              jump\t// in\n            tag_197:\n                /* \"#utility.yul\":3126:3199   */\n              tag_198\n                /* \"#utility.yul\":3194:3197   */\n              0x80\n                /* \"#utility.yul\":3183:3192   */\n              dup4\n                /* \"#utility.yul\":3179:3198   */\n              add\n                /* \"#utility.yul\":3170:3176   */\n              dup5\n                /* \"#utility.yul\":3126:3199   */\n              tag_132\n              jump\t// in\n            tag_198:\n                /* \"#utility.yul\":2542:3206   */\n              swap7\n              swap6\n              pop\n              pop\n              pop\n              pop\n              pop\n              pop\n              jump\t// out\n                /* \"#utility.yul\":3212:3434   */\n            tag_36:\n                /* \"#utility.yul\":3305:3309   */\n              0x00\n                /* \"#utility.yul\":3343:3345   */\n              0x20\n                /* \"#utility.yul\":3332:3341   */\n              dup3\n                /* \"#utility.yul\":3328:3346   */\n              add\n                /* \"#utility.yul\":3320:3346   */\n              swap1\n              pop\n                /* \"#utility.yul\":3356:3427   */\n              tag_200\n                /* \"#utility.yul\":3424:3425   */\n              0x00\n                /* \"#utility.yul\":3413:3422   */\n              dup4\n                /* \"#utility.yul\":3409:3426   */\n              add\n                /* \"#utility.yul\":3400:3406   */\n              dup5\n                /* \"#utility.yul\":3356:3427   */\n              tag_131\n              jump\t// in\n            tag_200:\n                /* \"#utility.yul\":3212:3434   */\n              swap3\n              swap2\n              pop\n              pop\n              jump\t// out\n                /* \"#utility.yul\":3440:3662   */\n            tag_41:\n                /* \"#utility.yul\":3533:3537   */\n              0x00\n                /* \"#utility.yul\":3571:3573   */\n              0x20\n                /* \"#utility.yul\":3560:3569   */\n              dup3\n                /* \"#utility.yul\":3556:3574   */\n              add\n                /* \"#utility.yul\":3548:3574   */\n              swap1\n              pop\n                /* \"#utility.yul\":3584:3655   */\n              tag_202\n                /* \"#utility.yul\":3652:3653   */\n              0x00\n                /* \"#utility.yul\":3641:3650   */\n              dup4\n                /* \"#utility.yul\":3637:3654   */\n              add\n                /* \"#utility.yul\":3628:3634   */\n              dup5\n                /* \"#utility.yul\":3584:3655   */\n              tag_132\n              jump\t// in\n            tag_202:\n                /* \"#utility.yul\":3440:3662   */\n              swap3\n              swap2\n              pop\n              pop\n              jump\t// out\n                /* \"#utility.yul\":3668:3772   */\n            tag_133:\n                /* \"#utility.yul\":3713:3720   */\n              0x00\n                /* \"#utility.yul\":3742:3766   */\n              tag_204\n                /* \"#utility.yul\":3760:3765   */\n              dup3\n                /* \"#utility.yul\":3742:3766   */\n              tag_125\n              jump\t// in\n            tag_204:\n                /* \"#utility.yul\":3731:3766   */\n              swap1\n              pop\n                /* \"#utility.yul\":3668:3772   */\n              swap2\n              swap1\n              pop\n              jump\t// out\n                /* \"#utility.yul\":3778:3920   */\n            tag_134:\n                /* \"#utility.yul\":3881:3913   */\n              tag_206\n                /* \"#utility.yul\":3907:3912   */\n              dup2\n                /* \"#utility.yul\":3881:3913   */\n              tag_133\n              jump\t// in\n            tag_206:\n                /* \"#utility.yul\":3876:3879   */\n              dup3\n                /* \"#utility.yul\":3869:3914   */\n              mstore\n                /* \"#utility.yul\":3778:3920   */\n              pop\n              pop\n              jump\t// out\n                /* \"#utility.yul\":3926:4025   */\n            tag_135:\n                /* \"#utility.yul\":3978:3984   */\n              0x00\n                /* \"#utility.yul\":4012:4017   */\n              dup2\n                /* \"#utility.yul\":4006:4018   */\n              mload\n                /* \"#utility.yul\":3996:4018   */\n              swap1\n              pop\n                /* \"#utility.yul\":3926:4025   */\n              swap2\n              swap1\n              pop\n              jump\t// out\n                /* \"#utility.yul\":4031:4200   */\n            tag_136:\n                /* \"#utility.yul\":4115:4126   */\n              0x00\n                /* \"#utility.yul\":4149:4155   */\n              dup3\n                /* \"#utility.yul\":4144:4147   */\n              dup3\n                /* \"#utility.yul\":4137:4156   */\n              mstore\n                /* \"#utility.yul\":4189:4193   */\n              0x20\n                /* \"#utility.yul\":4184:4187   */\n              dup3\n                /* \"#utility.yul\":4180:4194   */\n              add\n                /* \"#utility.yul\":4165:4194   */\n              swap1\n              pop\n                /* \"#utility.yul\":4031:4200   */\n              swap3\n              swap2\n              pop\n              pop\n              jump\t// out\n                /* \"#utility.yul\":4206:4513   */\n            tag_137:\n                /* \"#utility.yul\":4274:4275   */\n              0x00\n                /* \"#utility.yul\":4284:4397   */\n            tag_210:\n                /* \"#utility.yul\":4298:4304   */\n              dup4\n                /* \"#utility.yul\":4295:4296   */\n              dup2\n                /* \"#utility.yul\":4292:4305   */\n              lt\n                /* \"#utility.yul\":4284:4397   */\n              iszero\n              tag_212\n              jumpi\n                /* \"#utility.yul\":4383:4384   */\n              dup1\n                /* \"#utility.yul\":4378:4381   */\n              dup3\n                /* \"#utility.yul\":4374:4385   */\n              add\n                /* \"#utility.yul\":4368:4386   */\n              mload\n                /* \"#utility.yul\":4364:4365   */\n              dup2\n                /* \"#utility.yul\":4359:4362   */\n              dup5\n                /* \"#utility.yul\":4355:4366   */\n              add\n                /* \"#utility.yul\":4348:4387   */\n              mstore\n                /* \"#utility.yul\":4320:4322   */\n              0x20\n                /* \"#utility.yul\":4317:4318   */\n              dup2\n                /* \"#utility.yul\":4313:4323   */\n              add\n                /* \"#utility.yul\":4308:4323   */\n              swap1\n              pop\n                /* \"#utility.yul\":4284:4397   */\n              jump(tag_210)\n            tag_212:\n                /* \"#utility.yul\":4415:4421   */\n              dup4\n                /* \"#utility.yul\":4412:4413   */\n              dup2\n                /* \"#utility.yul\":4409:4422   */\n              gt\n                /* \"#utility.yul\":4406:4507   */\n              iszero\n              tag_213\n              jumpi\n                /* \"#utility.yul\":4495:4496   */\n              0x00\n                /* \"#utility.yul\":4486:4492   */\n              dup5\n                /* \"#utility.yul\":4481:4484   */\n              dup5\n                /* \"#utility.yul\":4477:4493   */\n              add\n                /* \"#utility.yul\":4470:4497   */\n              mstore\n                /* \"#utility.yul\":4406:4507   */\n            tag_213:\n                /* \"#utility.yul\":4255:4513   */\n              pop\n                /* \"#utility.yul\":4206:4513   */\n              pop\n              pop\n              pop\n              jump\t// out\n                /* \"#utility.yul\":4519:4621   */\n            tag_138:\n                /* \"#utility.yul\":4560:4566   */\n              0x00\n                /* \"#utility.yul\":4611:4613   */\n              0x1f\n                /* \"#utility.yul\":4607:4614   */\n              not\n                /* \"#utility.yul\":4602:4604   */\n              0x1f\n                /* \"#utility.yul\":4595:4600   */\n              dup4\n                /* \"#utility.yul\":4591:4605   */\n              add\n                /* \"#utility.yul\":4587:4615   */\n              and\n                /* \"#utility.yul\":4577:4615   */\n              swap1\n              pop\n                /* \"#utility.yul\":4519:4621   */\n              swap2\n              swap1\n              pop\n              jump\t// out\n                /* \"#utility.yul\":4627:4991   */\n            tag_139:\n                /* \"#utility.yul\":4715:4718   */\n              0x00\n                /* \"#utility.yul\":4743:4782   */\n              tag_216\n                /* \"#utility.yul\":4776:4781   */\n              dup3\n                /* \"#utility.yul\":4743:4782   */\n              tag_135\n              jump\t// in\n            tag_216:\n                /* \"#utility.yul\":4798:4869   */\n              tag_217\n                /* \"#utility.yul\":4862:4868   */\n              dup2\n                /* \"#utility.yul\":4857:4860   */\n              dup6\n                /* \"#utility.yul\":4798:4869   */\n              tag_136\n              jump\t// in\n            tag_217:\n                /* \"#utility.yul\":4791:4869   */\n              swap4\n              pop\n                /* \"#utility.yul\":4878:4930   */\n              tag_218\n                /* \"#utility.yul\":4923:4929   */\n              dup2\n                /* \"#utility.yul\":4918:4921   */\n              dup6\n                /* \"#utility.yul\":4911:4915   */\n              0x20\n                /* \"#utility.yul\":4904:4909   */\n              dup7\n                /* \"#utility.yul\":4900:4916   */\n              add\n                /* \"#utility.yul\":4878:4930   */\n              tag_137\n              jump\t// in\n            tag_218:\n                /* \"#utility.yul\":4955:4984   */\n              tag_219\n                /* \"#utility.yul\":4977:4983   */\n              dup2\n                /* \"#utility.yul\":4955:4984   */\n              tag_138\n              jump\t// in\n            tag_219:\n                /* \"#utility.yul\":4950:4953   */\n              dup5\n                /* \"#utility.yul\":4946:4985   */\n              add\n                /* \"#utility.yul\":4939:4985   */\n              swap2\n              pop\n                /* \"#utility.yul\":4719:4991   */\n              pop\n                /* \"#utility.yul\":4627:4991   */\n              swap3\n              swap2\n              pop\n              pop\n              jump\t// out\n                /* \"#utility.yul\":4997:5772   */\n            tag_47:\n                /* \"#utility.yul\":5232:5236   */\n              0x00\n                /* \"#utility.yul\":5270:5273   */\n              0xa0\n                /* \"#utility.yul\":5259:5268   */\n              dup3\n                /* \"#utility.yul\":5255:5274   */\n              add\n                /* \"#utility.yul\":5247:5274   */\n              swap1\n              pop\n                /* \"#utility.yul\":5284:5371   */\n              tag_221\n                /* \"#utility.yul\":5368:5369   */\n              0x00\n                /* \"#utility.yul\":5357:5366   */\n              dup4\n                /* \"#utility.yul\":5353:5370   */\n              add\n                /* \"#utility.yul\":5344:5350   */\n              dup9\n                /* \"#utility.yul\":5284:5371   */\n              tag_134\n              jump\t// in\n            tag_221:\n                /* \"#utility.yul\":5418:5427   */\n              dup2\n                /* \"#utility.yul\":5412:5416   */\n              dup2\n                /* \"#utility.yul\":5408:5428   */\n              sub\n                /* \"#utility.yul\":5403:5405   */\n              0x20\n                /* \"#utility.yul\":5392:5401   */\n              dup4\n                /* \"#utility.yul\":5388:5406   */\n              add\n                /* \"#utility.yul\":5381:5429   */\n              mstore\n                /* \"#utility.yul\":5446:5524   */\n              tag_222\n                /* \"#utility.yul\":5519:5523   */\n              dup2\n                /* \"#utility.yul\":5510:5516   */\n              dup8\n                /* \"#utility.yul\":5446:5524   */\n              tag_139\n              jump\t// in\n            tag_222:\n                /* \"#utility.yul\":5438:5524   */\n              swap1\n              pop\n                /* \"#utility.yul\":5534:5606   */\n              tag_223\n                /* \"#utility.yul\":5602:5604   */\n              0x40\n                /* \"#utility.yul\":5591:5600   */\n              dup4\n                /* \"#utility.yul\":5587:5605   */\n              add\n                /* \"#utility.yul\":5578:5584   */\n              dup7\n                /* \"#utility.yul\":5534:5606   */\n              tag_131\n              jump\t// in\n            tag_223:\n                /* \"#utility.yul\":5616:5688   */\n              tag_224\n                /* \"#utility.yul\":5684:5686   */\n              0x60\n                /* \"#utility.yul\":5673:5682   */\n              dup4\n                /* \"#utility.yul\":5669:5687   */\n              add\n                /* \"#utility.yul\":5660:5666   */\n              dup6\n                /* \"#utility.yul\":5616:5688   */\n              tag_131\n              jump\t// in\n            tag_224:\n                /* \"#utility.yul\":5698:5765   */\n              tag_225\n                /* \"#utility.yul\":5760:5763   */\n              0x80\n                /* \"#utility.yul\":5749:5758   */\n              dup4\n                /* \"#utility.yul\":5745:5764   */\n              add\n                /* \"#utility.yul\":5736:5742   */\n              dup5\n                /* \"#utility.yul\":5698:5765   */\n              tag_130\n              jump\t// in\n            tag_225:\n                /* \"#utility.yul\":4997:5772   */\n              swap7\n              swap6\n              pop\n              pop\n              pop\n              pop\n              pop\n              pop\n              jump\t// out\n                /* \"#utility.yul\":5778:5895   */\n            tag_140:\n                /* \"#utility.yul\":5887:5888   */\n              0x00\n                /* \"#utility.yul\":5884:5885   */\n              dup1\n                /* \"#utility.yul\":5877:5889   */\n              revert\n                /* \"#utility.yul\":5901:6018   */\n            tag_141:\n                /* \"#utility.yul\":6010:6011   */\n              0x00\n                /* \"#utility.yul\":6007:6008   */\n              dup1\n                /* \"#utility.yul\":6000:6012   */\n              revert\n                /* \"#utility.yul\":6024:6204   */\n            tag_142:\n                /* \"#utility.yul\":6072:6149   */\n              0x4e487b7100000000000000000000000000000000000000000000000000000000\n                /* \"#utility.yul\":6069:6070   */\n              0x00\n                /* \"#utility.yul\":6062:6150   */\n              mstore\n                /* \"#utility.yul\":6169:6173   */\n              0x41\n                /* \"#utility.yul\":6166:6167   */\n              0x04\n                /* \"#utility.yul\":6159:6174   */\n              mstore\n                /* \"#utility.yul\":6193:6197   */\n              0x24\n                /* \"#utility.yul\":6190:6191   */\n              0x00\n                /* \"#utility.yul\":6183:6198   */\n              revert\n                /* \"#utility.yul\":6210:6491   */\n            tag_143:\n                /* \"#utility.yul\":6293:6320   */\n              tag_230\n                /* \"#utility.yul\":6315:6319   */\n              dup3\n                /* \"#utility.yul\":6293:6320   */\n              tag_138\n              jump\t// in\n            tag_230:\n                /* \"#utility.yul\":6285:6291   */\n              dup2\n                /* \"#utility.yul\":6281:6321   */\n              add\n                /* \"#utility.yul\":6423:6429   */\n              dup2\n                /* \"#utility.yul\":6411:6421   */\n              dup2\n                /* \"#utility.yul\":6408:6430   */\n              lt\n                /* \"#utility.yul\":6387:6405   */\n              0xffffffffffffffff\n                /* \"#utility.yul\":6375:6385   */\n              dup3\n                /* \"#utility.yul\":6372:6406   */\n              gt\n                /* \"#utility.yul\":6369:6431   */\n              or\n                /* \"#utility.yul\":6366:6454   */\n              iszero\n              tag_231\n              jumpi\n                /* \"#utility.yul\":6434:6452   */\n              tag_232\n              tag_142\n              jump\t// in\n            tag_232:\n                /* \"#utility.yul\":6366:6454   */\n            tag_231:\n                /* \"#utility.yul\":6474:6484   */\n              dup1\n                /* \"#utility.yul\":6470:6472   */\n              0x40\n                /* \"#utility.yul\":6463:6485   */\n              mstore\n                /* \"#utility.yul\":6253:6491   */\n              pop\n                /* \"#utility.yul\":6210:6491   */\n              pop\n              pop\n              jump\t// out\n                /* \"#utility.yul\":6497:6626   */\n            tag_144:\n                /* \"#utility.yul\":6531:6537   */\n              0x00\n                /* \"#utility.yul\":6558:6578   */\n              tag_234\n              tag_119\n              jump\t// in\n            tag_234:\n                /* \"#utility.yul\":6548:6578   */\n              swap1\n              pop\n                /* \"#utility.yul\":6587:6620   */\n              tag_235\n                /* \"#utility.yul\":6615:6619   */\n              dup3\n                /* \"#utility.yul\":6607:6613   */\n              dup3\n                /* \"#utility.yul\":6587:6620   */\n              tag_143\n              jump\t// in\n            tag_235:\n                /* \"#utility.yul\":6497:6626   */\n              swap2\n              swap1\n              pop\n              jump\t// out\n                /* \"#utility.yul\":6632:6940   */\n            tag_145:\n                /* \"#utility.yul\":6694:6698   */\n              0x00\n                /* \"#utility.yul\":6784:6802   */\n              0xffffffffffffffff\n                /* \"#utility.yul\":6776:6782   */\n              dup3\n                /* \"#utility.yul\":6773:6803   */\n              gt\n                /* \"#utility.yul\":6770:6826   */\n              iszero\n              tag_237\n              jumpi\n                /* \"#utility.yul\":6806:6824   */\n              tag_238\n              tag_142\n              jump\t// in\n            tag_238:\n                /* \"#utility.yul\":6770:6826   */\n            tag_237:\n                /* \"#utility.yul\":6844:6873   */\n              tag_239\n                /* \"#utility.yul\":6866:6872   */\n              dup3\n                /* \"#utility.yul\":6844:6873   */\n              tag_138\n              jump\t// in\n            tag_239:\n                /* \"#utility.yul\":6836:6873   */\n              swap1\n              pop\n                /* \"#utility.yul\":6928:6932   */\n              0x20\n                /* \"#utility.yul\":6922:6926   */\n              dup2\n                /* \"#utility.yul\":6918:6933   */\n              add\n                /* \"#utility.yul\":6910:6933   */\n              swap1\n              pop\n                /* \"#utility.yul\":6632:6940   */\n              swap2\n              swap1\n              pop\n              jump\t// out\n                /* \"#utility.yul\":6946:7100   */\n            tag_146:\n                /* \"#utility.yul\":7030:7036   */\n              dup3\n                /* \"#utility.yul\":7025:7028   */\n              dup2\n                /* \"#utility.yul\":7020:7023   */\n              dup4\n                /* \"#utility.yul\":7007:7037   */\n              calldatacopy\n                /* \"#utility.yul\":7092:7093   */\n              0x00\n                /* \"#utility.yul\":7083:7089   */\n              dup4\n                /* \"#utility.yul\":7078:7081   */\n              dup4\n                /* \"#utility.yul\":7074:7090   */\n              add\n                /* \"#utility.yul\":7067:7094   */\n              mstore\n                /* \"#utility.yul\":6946:7100   */\n              pop\n              pop\n              pop\n              jump\t// out\n                /* \"#utility.yul\":7106:7518   */\n            tag_147:\n                /* \"#utility.yul\":7184:7189   */\n              0x00\n                /* \"#utility.yul\":7209:7275   */\n              tag_242\n                /* \"#utility.yul\":7225:7274   */\n              tag_243\n                /* \"#utility.yul\":7267:7273   */\n              dup5\n                /* \"#utility.yul\":7225:7274   */\n              tag_145\n              jump\t// in\n            tag_243:\n                /* \"#utility.yul\":7209:7275   */\n              tag_144\n              jump\t// in\n            tag_242:\n                /* \"#utility.yul\":7200:7275   */\n              swap1\n              pop\n                /* \"#utility.yul\":7298:7304   */\n              dup3\n                /* \"#utility.yul\":7291:7296   */\n              dup2\n                /* \"#utility.yul\":7284:7305   */\n              mstore\n                /* \"#utility.yul\":7336:7340   */\n              0x20\n                /* \"#utility.yul\":7329:7334   */\n              dup2\n                /* \"#utility.yul\":7325:7341   */\n              add\n                /* \"#utility.yul\":7374:7377   */\n              dup5\n                /* \"#utility.yul\":7365:7371   */\n              dup5\n                /* \"#utility.yul\":7360:7363   */\n              dup5\n                /* \"#utility.yul\":7356:7372   */\n              add\n                /* \"#utility.yul\":7353:7378   */\n              gt\n                /* \"#utility.yul\":7350:7462   */\n              iszero\n              tag_244\n              jumpi\n                /* \"#utility.yul\":7381:7460   */\n              tag_245\n              tag_141\n              jump\t// in\n            tag_245:\n                /* \"#utility.yul\":7350:7462   */\n            tag_244:\n                /* \"#utility.yul\":7471:7512   */\n              tag_246\n                /* \"#utility.yul\":7505:7511   */\n              dup5\n                /* \"#utility.yul\":7500:7503   */\n              dup3\n                /* \"#utility.yul\":7495:7498   */\n              dup6\n                /* \"#utility.yul\":7471:7512   */\n              tag_146\n              jump\t// in\n            tag_246:\n                /* \"#utility.yul\":7190:7518   */\n              pop\n                /* \"#utility.yul\":7106:7518   */\n              swap4\n              swap3\n              pop\n              pop\n              pop\n              jump\t// out\n                /* \"#utility.yul\":7538:7878   */\n            tag_148:\n                /* \"#utility.yul\":7594:7599   */\n              0x00\n                /* \"#utility.yul\":7643:7646   */\n              dup3\n                /* \"#utility.yul\":7636:7640   */\n              0x1f\n                /* \"#utility.yul\":7628:7634   */\n              dup4\n                /* \"#utility.yul\":7624:7641   */\n              add\n                /* \"#utility.yul\":7620:7647   */\n              slt\n                /* \"#utility.yul\":7610:7732   */\n              tag_248\n              jumpi\n                /* \"#utility.yul\":7651:7730   */\n              tag_249\n              tag_140\n              jump\t// in\n            tag_249:\n                /* \"#utility.yul\":7610:7732   */\n            tag_248:\n                /* \"#utility.yul\":7768:7774   */\n              dup2\n                /* \"#utility.yul\":7755:7775   */\n              calldataload\n                /* \"#utility.yul\":7793:7872   */\n              tag_250\n                /* \"#utility.yul\":7868:7871   */\n              dup5\n                /* \"#utility.yul\":7860:7866   */\n              dup3\n                /* \"#utility.yul\":7853:7857   */\n              0x20\n                /* \"#utility.yul\":7845:7851   */\n              dup7\n                /* \"#utility.yul\":7841:7858   */\n              add\n                /* \"#utility.yul\":7793:7872   */\n              tag_147\n              jump\t// in\n            tag_250:\n                /* \"#utility.yul\":7784:7872   */\n              swap2\n              pop\n                /* \"#utility.yul\":7600:7878   */\n              pop\n                /* \"#utility.yul\":7538:7878   */\n              swap3\n              swap2\n              pop\n              pop\n              jump\t// out\n                /* \"#utility.yul\":7884:8022   */\n            tag_149:\n                /* \"#utility.yul\":7965:7997   */\n              tag_252\n                /* \"#utility.yul\":7991:7996   */\n              dup2\n                /* \"#utility.yul\":7965:7997   */\n              tag_133\n              jump\t// in\n            tag_252:\n                /* \"#utility.yul\":7958:7963   */\n              dup2\n                /* \"#utility.yul\":7955:7998   */\n              eq\n                /* \"#utility.yul\":7945:8016   */\n              tag_253\n              jumpi\n                /* \"#utility.yul\":8012:8013   */\n              0x00\n                /* \"#utility.yul\":8009:8010   */\n              dup1\n                /* \"#utility.yul\":8002:8014   */\n              revert\n                /* \"#utility.yul\":7945:8016   */\n            tag_253:\n                /* \"#utility.yul\":7884:8022   */\n              pop\n              jump\t// out\n                /* \"#utility.yul\":8028:8183   */\n            tag_150:\n                /* \"#utility.yul\":8082:8087   */\n              0x00\n                /* \"#utility.yul\":8120:8126   */\n              dup2\n                /* \"#utility.yul\":8107:8127   */\n              calldataload\n                /* \"#utility.yul\":8098:8127   */\n              swap1\n              pop\n                /* \"#utility.yul\":8136:8177   */\n              tag_255\n                /* \"#utility.yul\":8171:8176   */\n              dup2\n                /* \"#utility.yul\":8136:8177   */\n              tag_149\n              jump\t// in\n            tag_255:\n                /* \"#utility.yul\":8028:8183   */\n              swap3\n              swap2\n              pop\n              pop\n              jump\t// out\n                /* \"#utility.yul\":8189:9004   */\n            tag_55:\n                /* \"#utility.yul\":8284:8290   */\n              0x00\n                /* \"#utility.yul\":8292:8298   */\n              dup1\n                /* \"#utility.yul\":8300:8306   */\n              0x00\n                /* \"#utility.yul\":8349:8351   */\n              0x60\n                /* \"#utility.yul\":8337:8346   */\n              dup5\n                /* \"#utility.yul\":8328:8335   */\n              dup7\n                /* \"#utility.yul\":8324:8347   */\n              sub\n                /* \"#utility.yul\":8320:8352   */\n              slt\n                /* \"#utility.yul\":8317:8436   */\n              iszero\n              tag_257\n              jumpi\n                /* \"#utility.yul\":8355:8434   */\n              tag_258\n              tag_120\n              jump\t// in\n            tag_258:\n                /* \"#utility.yul\":8317:8436   */\n            tag_257:\n                /* \"#utility.yul\":8503:8504   */\n              0x00\n                /* \"#utility.yul\":8492:8501   */\n              dup5\n                /* \"#utility.yul\":8488:8505   */\n              add\n                /* \"#utility.yul\":8475:8506   */\n              calldataload\n                /* \"#utility.yul\":8533:8551   */\n              0xffffffffffffffff\n                /* \"#utility.yul\":8525:8531   */\n              dup2\n                /* \"#utility.yul\":8522:8552   */\n              gt\n                /* \"#utility.yul\":8519:8636   */\n              iszero\n              tag_259\n              jumpi\n                /* \"#utility.yul\":8555:8634   */\n              tag_260\n              tag_121\n              jump\t// in\n            tag_260:\n                /* \"#utility.yul\":8519:8636   */\n            tag_259:\n                /* \"#utility.yul\":8660:8723   */\n              tag_261\n                /* \"#utility.yul\":8715:8722   */\n              dup7\n                /* \"#utility.yul\":8706:8712   */\n              dup3\n                /* \"#utility.yul\":8695:8704   */\n              dup8\n                /* \"#utility.yul\":8691:8713   */\n              add\n                /* \"#utility.yul\":8660:8723   */\n              tag_148\n              jump\t// in\n            tag_261:\n                /* \"#utility.yul\":8650:8723   */\n              swap4\n              pop\n                /* \"#utility.yul\":8446:8733   */\n              pop\n                /* \"#utility.yul\":8772:8774   */\n              0x20\n                /* \"#utility.yul\":8798:8851   */\n              tag_262\n                /* \"#utility.yul\":8843:8850   */\n              dup7\n                /* \"#utility.yul\":8834:8840   */\n              dup3\n                /* \"#utility.yul\":8823:8832   */\n              dup8\n                /* \"#utility.yul\":8819:8841   */\n              add\n                /* \"#utility.yul\":8798:8851   */\n              tag_124\n              jump\t// in\n            tag_262:\n                /* \"#utility.yul\":8788:8851   */\n              swap3\n              pop\n                /* \"#utility.yul\":8743:8861   */\n              pop\n                /* \"#utility.yul\":8900:8902   */\n              0x40\n                /* \"#utility.yul\":8926:8987   */\n              tag_263\n                /* \"#utility.yul\":8979:8986   */\n              dup7\n                /* \"#utility.yul\":8970:8976   */\n              dup3\n                /* \"#utility.yul\":8959:8968   */\n              dup8\n                /* \"#utility.yul\":8955:8977   */\n              add\n                /* \"#utility.yul\":8926:8987   */\n              tag_150\n              jump\t// in\n            tag_263:\n                /* \"#utility.yul\":8916:8987   */\n              swap2\n              pop\n                /* \"#utility.yul\":8871:8997   */\n              pop\n                /* \"#utility.yul\":8189:9004   */\n              swap3\n              pop\n              swap3\n              pop\n              swap3\n              jump\t// out\n                /* \"#utility.yul\":9010:9183   */\n            tag_151:\n                /* \"#utility.yul\":9150:9175   */\n              0x6d616e616765722070726976696c65676573206f6e6c79000000000000000000\n                /* \"#utility.yul\":9146:9147   */\n              0x00\n                /* \"#utility.yul\":9138:9144   */\n              dup3\n                /* \"#utility.yul\":9134:9148   */\n              add\n                /* \"#utility.yul\":9127:9176   */\n              mstore\n                /* \"#utility.yul\":9010:9183   */\n              pop\n              jump\t// out\n                /* \"#utility.yul\":9189:9555   */\n            tag_152:\n                /* \"#utility.yul\":9331:9334   */\n              0x00\n                /* \"#utility.yul\":9352:9419   */\n              tag_266\n                /* \"#utility.yul\":9416:9418   */\n              0x17\n                /* \"#utility.yul\":9411:9414   */\n              dup4\n                /* \"#utility.yul\":9352:9419   */\n              tag_136\n              jump\t// in\n            tag_266:\n                /* \"#utility.yul\":9345:9419   */\n              swap2\n              pop\n                /* \"#utility.yul\":9428:9521   */\n              tag_267\n                /* \"#utility.yul\":9517:9520   */\n              dup3\n                /* \"#utility.yul\":9428:9521   */\n              tag_151\n              jump\t// in\n            tag_267:\n                /* \"#utility.yul\":9546:9548   */\n              0x20\n                /* \"#utility.yul\":9541:9544   */\n              dup3\n                /* \"#utility.yul\":9537:9549   */\n              add\n                /* \"#utility.yul\":9530:9549   */\n              swap1\n              pop\n                /* \"#utility.yul\":9189:9555   */\n              swap2\n              swap1\n              pop\n              jump\t// out\n                /* \"#utility.yul\":9561:9980   */\n            tag_74:\n                /* \"#utility.yul\":9727:9731   */\n              0x00\n                /* \"#utility.yul\":9765:9767   */\n              0x20\n                /* \"#utility.yul\":9754:9763   */\n              dup3\n                /* \"#utility.yul\":9750:9768   */\n              add\n                /* \"#utility.yul\":9742:9768   */\n              swap1\n              pop\n                /* \"#utility.yul\":9814:9823   */\n              dup2\n                /* \"#utility.yul\":9808:9812   */\n              dup2\n                /* \"#utility.yul\":9804:9824   */\n              sub\n                /* \"#utility.yul\":9800:9801   */\n              0x00\n                /* \"#utility.yul\":9789:9798   */\n              dup4\n                /* \"#utility.yul\":9785:9802   */\n              add\n                /* \"#utility.yul\":9778:9825   */\n              mstore\n                /* \"#utility.yul\":9842:9973   */\n              tag_269\n                /* \"#utility.yul\":9968:9972   */\n              dup2\n                /* \"#utility.yul\":9842:9973   */\n              tag_152\n              jump\t// in\n            tag_269:\n                /* \"#utility.yul\":9834:9973   */\n              swap1\n              pop\n                /* \"#utility.yul\":9561:9980   */\n              swap2\n              swap1\n              pop\n              jump\t// out\n                /* \"#utility.yul\":9986:10166   */\n            tag_153:\n                /* \"#utility.yul\":10034:10111   */\n              0x4e487b7100000000000000000000000000000000000000000000000000000000\n                /* \"#utility.yul\":10031:10032   */\n              0x00\n                /* \"#utility.yul\":10024:10112   */\n              mstore\n                /* \"#utility.yul\":10131:10135   */\n              0x12\n                /* \"#utility.yul\":10128:10129   */\n              0x04\n                /* \"#utility.yul\":10121:10136   */\n              mstore\n                /* \"#utility.yul\":10155:10159   */\n              0x24\n                /* \"#utility.yul\":10152:10153   */\n              0x00\n                /* \"#utility.yul\":10145:10160   */\n              revert\n                /* \"#utility.yul\":10172:10352   */\n            tag_154:\n                /* \"#utility.yul\":10220:10297   */\n              0x4e487b7100000000000000000000000000000000000000000000000000000000\n                /* \"#utility.yul\":10217:10218   */\n              0x00\n                /* \"#utility.yul\":10210:10298   */\n              mstore\n                /* \"#utility.yul\":10317:10321   */\n              0x11\n                /* \"#utility.yul\":10314:10315   */\n              0x04\n                /* \"#utility.yul\":10307:10322   */\n              mstore\n                /* \"#utility.yul\":10341:10345   */\n              0x24\n                /* \"#utility.yul\":10338:10339   */\n              0x00\n                /* \"#utility.yul\":10331:10346   */\n              revert\n                /* \"#utility.yul\":10358:10543   */\n            tag_77:\n                /* \"#utility.yul\":10398:10399   */\n              0x00\n                /* \"#utility.yul\":10415:10435   */\n              tag_273\n                /* \"#utility.yul\":10433:10434   */\n              dup3\n                /* \"#utility.yul\":10415:10435   */\n              tag_122\n              jump\t// in\n            tag_273:\n                /* \"#utility.yul\":10410:10435   */\n              swap2\n              pop\n                /* \"#utility.yul\":10449:10469   */\n              tag_274\n                /* \"#utility.yul\":10467:10468   */\n              dup4\n                /* \"#utility.yul\":10449:10469   */\n              tag_122\n              jump\t// in\n            tag_274:\n                /* \"#utility.yul\":10444:10469   */\n              swap3\n              pop\n                /* \"#utility.yul\":10488:10489   */\n              dup3\n                /* \"#utility.yul\":10478:10513   */\n              tag_275\n              jumpi\n                /* \"#utility.yul\":10493:10511   */\n              tag_276\n              tag_153\n              jump\t// in\n            tag_276:\n                /* \"#utility.yul\":10478:10513   */\n            tag_275:\n                /* \"#utility.yul\":10535:10536   */\n              dup3\n                /* \"#utility.yul\":10532:10533   */\n              dup3\n                /* \"#utility.yul\":10528:10537   */\n              div\n                /* \"#utility.yul\":10523:10537   */\n              swap1\n              pop\n                /* \"#utility.yul\":10358:10543   */\n              swap3\n              swap2\n              pop\n              pop\n              jump\t// out\n                /* \"#utility.yul\":10549:10729   */\n            tag_155:\n                /* \"#utility.yul\":10597:10674   */\n              0x4e487b7100000000000000000000000000000000000000000000000000000000\n                /* \"#utility.yul\":10594:10595   */\n              0x00\n                /* \"#utility.yul\":10587:10675   */\n              mstore\n                /* \"#utility.yul\":10694:10698   */\n              0x22\n                /* \"#utility.yul\":10691:10692   */\n              0x04\n                /* \"#utility.yul\":10684:10699   */\n              mstore\n                /* \"#utility.yul\":10718:10722   */\n              0x24\n                /* \"#utility.yul\":10715:10716   */\n              0x00\n                /* \"#utility.yul\":10708:10723   */\n              revert\n                /* \"#utility.yul\":10735:11055   */\n            tag_85:\n                /* \"#utility.yul\":10779:10785   */\n              0x00\n                /* \"#utility.yul\":10816:10817   */\n              0x02\n                /* \"#utility.yul\":10810:10814   */\n              dup3\n                /* \"#utility.yul\":10806:10818   */\n              div\n                /* \"#utility.yul\":10796:10818   */\n              swap1\n              pop\n                /* \"#utility.yul\":10863:10864   */\n              0x01\n                /* \"#utility.yul\":10857:10861   */\n              dup3\n                /* \"#utility.yul\":10853:10865   */\n              and\n                /* \"#utility.yul\":10884:10902   */\n              dup1\n                /* \"#utility.yul\":10874:10955   */\n              tag_279\n              jumpi\n                /* \"#utility.yul\":10940:10944   */\n              0x7f\n                /* \"#utility.yul\":10932:10938   */\n              dup3\n                /* \"#utility.yul\":10928:10945   */\n              and\n                /* \"#utility.yul\":10918:10945   */\n              swap2\n              pop\n                /* \"#utility.yul\":10874:10955   */\n            tag_279:\n                /* \"#utility.yul\":11002:11004   */\n              0x20\n                /* \"#utility.yul\":10994:11000   */\n              dup3\n                /* \"#utility.yul\":10991:11005   */\n              lt\n                /* \"#utility.yul\":10971:10989   */\n              dup2\n                /* \"#utility.yul\":10968:11006   */\n              eq\n                /* \"#utility.yul\":10965:11049   */\n              iszero\n              tag_280\n              jumpi\n                /* \"#utility.yul\":11021:11039   */\n              tag_281\n              tag_155\n              jump\t// in\n            tag_281:\n                /* \"#utility.yul\":10965:11049   */\n            tag_280:\n                /* \"#utility.yul\":10786:11055   */\n              pop\n                /* \"#utility.yul\":10735:11055   */\n              swap2\n              swap1\n              pop\n              jump\t// out\n                /* \"#utility.yul\":11061:11294   */\n            tag_98:\n                /* \"#utility.yul\":11100:11103   */\n              0x00\n                /* \"#utility.yul\":11123:11147   */\n              tag_283\n                /* \"#utility.yul\":11141:11146   */\n              dup3\n                /* \"#utility.yul\":11123:11147   */\n              tag_122\n              jump\t// in\n            tag_283:\n                /* \"#utility.yul\":11114:11147   */\n              swap2\n              pop\n                /* \"#utility.yul\":11169:11235   */\n              0xffffffffffffffffffffffffffffffffffffffffffffffffffffffffffffffff\n                /* \"#utility.yul\":11162:11167   */\n              dup3\n                /* \"#utility.yul\":11159:11236   */\n              eq\n                /* \"#utility.yul\":11156:11259   */\n              iszero\n              tag_284\n              jumpi\n                /* \"#utility.yul\":11239:11257   */\n              tag_285\n              tag_154\n              jump\t// in\n            tag_285:\n                /* \"#utility.yul\":11156:11259   */\n            tag_284:\n                /* \"#utility.yul\":11286:11287   */\n              0x01\n                /* \"#utility.yul\":11279:11284   */\n              dup3\n                /* \"#utility.yul\":11275:11288   */\n              add\n                /* \"#utility.yul\":11268:11288   */\n              swap1\n              pop\n                /* \"#utility.yul\":11061:11294   */\n              swap2\n              swap1\n              pop\n              jump\t// out\n                /* \"#utility.yul\":11300:11479   */\n            tag_156:\n                /* \"#utility.yul\":11440:11471   */\n              0x6d696e696d756d20636f6e747269627574696f6e207265717569726564000000\n                /* \"#utility.yul\":11436:11437   */\n              0x00\n                /* \"#utility.yul\":11428:11434   */\n              dup3\n                /* \"#utility.yul\":11424:11438   */\n              add\n                /* \"#utility.yul\":11417:11472   */\n              mstore\n                /* \"#utility.yul\":11300:11479   */\n              pop\n              jump\t// out\n                /* \"#utility.yul\":11485:11851   */\n            tag_157:\n                /* \"#utility.yul\":11627:11630   */\n              0x00\n                /* \"#utility.yul\":11648:11715   */\n              tag_288\n                /* \"#utility.yul\":11712:11714   */\n              0x1d\n                /* \"#utility.yul\":11707:11710   */\n              dup4\n                /* \"#utility.yul\":11648:11715   */\n              tag_136\n              jump\t// in\n            tag_288:\n                /* \"#utility.yul\":11641:11715   */\n              swap2\n              pop\n                /* \"#utility.yul\":11724:11817   */\n              tag_289\n                /* \"#utility.yul\":11813:11816   */\n              dup3\n                /* \"#utility.yul\":11724:11817   */\n              tag_156\n              jump\t// in\n            tag_289:\n                /* \"#utility.yul\":11842:11844   */\n              0x20\n                /* \"#utility.yul\":11837:11840   */\n              dup3\n                /* \"#utility.yul\":11833:11845   */\n              add\n                /* \"#utility.yul\":11826:11845   */\n              swap1\n              pop\n                /* \"#utility.yul\":11485:11851   */\n              swap2\n              swap1\n              pop\n              jump\t// out\n                /* \"#utility.yul\":11857:12276   */\n            tag_103:\n                /* \"#utility.yul\":12023:12027   */\n              0x00\n                /* \"#utility.yul\":12061:12063   */\n              0x20\n                /* \"#utility.yul\":12050:12059   */\n              dup3\n                /* \"#utility.yul\":12046:12064   */\n              add\n                /* \"#utility.yul\":12038:12064   */\n              swap1\n              pop\n                /* \"#utility.yul\":12110:12119   */\n              dup2\n                /* \"#utility.yul\":12104:12108   */\n              dup2\n                /* \"#utility.yul\":12100:12120   */\n              sub\n                /* \"#utility.yul\":12096:12097   */\n              0x00\n                /* \"#utility.yul\":12085:12094   */\n              dup4\n                /* \"#utility.yul\":12081:12098   */\n              add\n                /* \"#utility.yul\":12074:12121   */\n              mstore\n                /* \"#utility.yul\":12138:12269   */\n              tag_291\n                /* \"#utility.yul\":12264:12268   */\n              dup2\n                /* \"#utility.yul\":12138:12269   */\n              tag_157\n              jump\t// in\n            tag_291:\n                /* \"#utility.yul\":12130:12269   */\n              swap1\n              pop\n                /* \"#utility.yul\":11857:12276   */\n              swap2\n              swap1\n              pop\n              jump\t// out\n\n            auxdata: 0xa264697066735822122084c72b14a1a5155919fb2fe4f693dc7e2206fe1d7ea81587e1d2522e9794dcba64736f6c634300080c0033\n        }\n    }\n\n    auxdata: 0xa26469706673582212205dea2444d953c727803a598e3975f7f20e2def6bfbd6d0427eeb62f003891bb664736f6c634300080c0033\n}\n",
    "bytecode": {
      "linkReferences": {},
      "object": "608060405234801561001057600080fd5b506116ec806100206000396000f3fe608060405234801561001057600080fd5b50600436106100415760003560e01c8063141961bc14610046578063a3303a7514610076578063a6b0363314610092575b600080fd5b610060600480360381019061005b9190610266565b6100b0565b60405161006d9190610312565b60405180910390f35b610090600480360381019061008b9190610266565b6100ef565b005b61009a610190565b6040516100a791906103eb565b60405180910390f35b600081815481106100c057600080fd5b906000526020600020016000915054906101000a900473ffffffffffffffffffffffffffffffffffffffff1681565b600081336040516100ff9061021e565b61010a92919061043d565b604051809103906000f080158015610126573d6000803e3d6000fd5b5090506000819080600181540180825580915050600190039060005260206000200160009091909190916101000a81548173ffffffffffffffffffffffffffffffffffffffff021916908373ffffffffffffffffffffffffffffffffffffffff1602179055505050565b6060600080548060200260200160405190810160405280929190818152602001828054801561021457602002820191906000526020600020905b8160009054906101000a900473ffffffffffffffffffffffffffffffffffffffff1673ffffffffffffffffffffffffffffffffffffffff16815260200190600101908083116101ca575b5050505050905090565b6112508061046783390190565b600080fd5b6000819050919050565b61024381610230565b811461024e57600080fd5b50565b6000813590506102608161023a565b92915050565b60006020828403121561027c5761027b61022b565b5b600061028a84828501610251565b91505092915050565b600073ffffffffffffffffffffffffffffffffffffffff82169050919050565b6000819050919050565b60006102d86102d36102ce84610293565b6102b3565b610293565b9050919050565b60006102ea826102bd565b9050919050565b60006102fc826102df565b9050919050565b61030c816102f1565b82525050565b60006020820190506103276000830184610303565b92915050565b600081519050919050565b600082825260208201905092915050565b6000819050602082019050919050565b610362816102f1565b82525050565b60006103748383610359565b60208301905092915050565b6000602082019050919050565b60006103988261032d565b6103a28185610338565b93506103ad83610349565b8060005b838110156103de5781516103c58882610368565b97506103d083610380565b9250506001810190506103b1565b5085935050505092915050565b60006020820190508181036000830152610405818461038d565b905092915050565b61041681610230565b82525050565b600061042782610293565b9050919050565b6104378161041c565b82525050565b6000604082019050610452600083018561040d565b61045f602083018461042e565b939250505056fe608060405260006004553480156200001657600080fd5b50604051620012503803806200125083398181016040528101906200003c919062000130565b806000806101000a81548173ffffffffffffffffffffffffffffffffffffffff021916908373ffffffffffffffffffffffffffffffffffffffff16021790555081600181905550505062000177565b600080fd5b6000819050919050565b620000a58162000090565b8114620000b157600080fd5b50565b600081519050620000c5816200009a565b92915050565b600073ffffffffffffffffffffffffffffffffffffffff82169050919050565b6000620000f882620000cb565b9050919050565b6200010a81620000eb565b81146200011657600080fd5b50565b6000815190506200012a81620000ff565b92915050565b600080604083850312156200014a57620001496200008b565b5b60006200015a85828601620000b4565b92505060206200016d8582860162000119565b9150509250929050565b6110c980620001876000396000f3fe6080604052600436106100a75760003560e01c806382fde0931161006457806382fde093146101d85780638a9cfd5514610203578063937e09b11461022c578063d7bb99ba14610257578063d7d1bbdb14610261578063fbfa4b7f1461028a576100a7565b806303441006146100ac5780630a144391146100d55780630c611f24146101125780633410452a14610141578063481c6a751461016c57806381d12c5814610197575b600080fd5b3480156100b857600080fd5b506100d360048036038101906100ce9190610a09565b6102b5565b005b3480156100e157600080fd5b506100fc60048036038101906100f79190610a94565b610423565b6040516101099190610adc565b60405180910390f35b34801561011e57600080fd5b50610127610443565b604051610138959493929190610b15565b60405180910390f35b34801561014d57600080fd5b50610156610487565b6040516101639190610b68565b60405180910390f35b34801561017857600080fd5b50610181610491565b60405161018e9190610b83565b60405180910390f35b3480156101a357600080fd5b506101be60048036038101906101b99190610a09565b6104b5565b6040516101cf959493929190610c58565b60405180910390f35b3480156101e457600080fd5b506101ed6105a0565b6040516101fa9190610b68565b60405180910390f35b34801561020f57600080fd5b5061022a60048036038101906102259190610e13565b6105a6565b005b34801561023857600080fd5b5061024161071c565b60405161024e9190610b68565b60405180910390f35b61025f610722565b005b34801561026d57600080fd5b5061028860048036038101906102839190610a09565b6107d8565b005b34801561029657600080fd5b5061029f610916565b6040516102ac9190610b68565b60405180910390f35b60008054906101000a900473ffffffffffffffffffffffffffffffffffffffff1673ffffffffffffffffffffffffffffffffffffffff163373ffffffffffffffffffffffffffffffffffffffff1614610343576040517f08c379a000000000000000000000000000000000000000000000000000000000815260040161033a90610ece565b60405180910390fd5b6000600660008381526020019081526020016000209050600280546103689190610f4c565b81600301541161037757600080fd5b8060040160009054906101000a900460ff161561039357600080fd5b8060000160009054906101000a900473ffffffffffffffffffffffffffffffffffffffff1673ffffffffffffffffffffffffffffffffffffffff166108fc82600201549081150290604051600060405180830381858888f19350505050158015610401573d6000803e3d6000fd5b5060018160040160006101000a81548160ff0219169083151502179055505050565b60056020528060005260406000206000915054906101000a900460ff1681565b60008060008060006001544760035460025460008054906101000a900473ffffffffffffffffffffffffffffffffffffffff16945094509450945094509091929394565b6000600354905090565b60008054906101000a900473ffffffffffffffffffffffffffffffffffffffff1681565b60066020528060005260406000206000915090508060000160009054906101000a900473ffffffffffffffffffffffffffffffffffffffff16908060010180546104fe90610fac565b80601f016020809104026020016040519081016040528092919081815260200182805461052a90610fac565b80156105775780601f1061054c57610100808354040283529160200191610577565b820191906000526020600020905b81548152906001019060200180831161055a57829003601f168201915b5050505050908060020154908060030154908060040160009054906101000a900460ff16905085565b60025481565b60008054906101000a900473ffffffffffffffffffffffffffffffffffffffff1673ffffffffffffffffffffffffffffffffffffffff163373ffffffffffffffffffffffffffffffffffffffff1614610634576040517f08c379a000000000000000000000000000000000000000000000000000000000815260040161062b90610ece565b60405180910390fd5b4782111561064157600080fd5b600060066000600454815260200190815260200160002090508381600101908051906020019061067292919061091c565b50818160000160006101000a81548173ffffffffffffffffffffffffffffffffffffffff021916908373ffffffffffffffffffffffffffffffffffffffff16021790555082816002018190555060008160040160006101000a81548160ff02191690831515021790555060008160030181905550600460008154809291906106f990610fde565b91905055506003600081548092919061071190610fde565b919050555050505050565b60015481565b6001543411610766576040517f08c379a000000000000000000000000000000000000000000000000000000000815260040161075d90611073565b60405180910390fd5b6001600560003373ffffffffffffffffffffffffffffffffffffffff1673ffffffffffffffffffffffffffffffffffffffff16815260200190815260200160002060006101000a81548160ff021916908315150217905550600260008154809291906107d190610fde565b9190505550565b6000600660008381526020019081526020016000209050600560003373ffffffffffffffffffffffffffffffffffffffff1673ffffffffffffffffffffffffffffffffffffffff16815260200190815260200160002060009054906101000a900460ff1661084557600080fd5b8060050160003373ffffffffffffffffffffffffffffffffffffffff1673ffffffffffffffffffffffffffffffffffffffff16815260200190815260200160002060009054906101000a900460ff161561089e57600080fd5b60018160050160003373ffffffffffffffffffffffffffffffffffffffff1673ffffffffffffffffffffffffffffffffffffffff16815260200190815260200160002060006101000a81548160ff02191690831515021790555080600301600081548092919061090d90610fde565b91905055505050565b60035481565b82805461092890610fac565b90600052602060002090601f01602090048101928261094a5760008555610991565b82601f1061096357805160ff1916838001178555610991565b82800160010185558215610991579182015b82811115610990578251825591602001919060010190610975565b5b50905061099e91906109a2565b5090565b5b808211156109bb5760008160009055506001016109a3565b5090565b6000604051905090565b600080fd5b600080fd5b6000819050919050565b6109e6816109d3565b81146109f157600080fd5b50565b600081359050610a03816109dd565b92915050565b600060208284031215610a1f57610a1e6109c9565b5b6000610a2d848285016109f4565b91505092915050565b600073ffffffffffffffffffffffffffffffffffffffff82169050919050565b6000610a6182610a36565b9050919050565b610a7181610a56565b8114610a7c57600080fd5b50565b600081359050610a8e81610a68565b92915050565b600060208284031215610aaa57610aa96109c9565b5b6000610ab884828501610a7f565b91505092915050565b60008115159050919050565b610ad681610ac1565b82525050565b6000602082019050610af16000830184610acd565b92915050565b610b00816109d3565b82525050565b610b0f81610a56565b82525050565b600060a082019050610b2a6000830188610af7565b610b376020830187610af7565b610b446040830186610af7565b610b516060830185610af7565b610b5e6080830184610b06565b9695505050505050565b6000602082019050610b7d6000830184610af7565b92915050565b6000602082019050610b986000830184610b06565b92915050565b6000610ba982610a36565b9050919050565b610bb981610b9e565b82525050565b600081519050919050565b600082825260208201905092915050565b60005b83811015610bf9578082015181840152602081019050610bde565b83811115610c08576000848401525b50505050565b6000601f19601f8301169050919050565b6000610c2a82610bbf565b610c348185610bca565b9350610c44818560208601610bdb565b610c4d81610c0e565b840191505092915050565b600060a082019050610c6d6000830188610bb0565b8181036020830152610c7f8187610c1f565b9050610c8e6040830186610af7565b610c9b6060830185610af7565b610ca86080830184610acd565b9695505050505050565b600080fd5b600080fd5b7f4e487b7100000000000000000000000000000000000000000000000000000000600052604160045260246000fd5b610cf482610c0e565b810181811067ffffffffffffffff82111715610d1357610d12610cbc565b5b80604052505050565b6000610d266109bf565b9050610d328282610ceb565b919050565b600067ffffffffffffffff821115610d5257610d51610cbc565b5b610d5b82610c0e565b9050602081019050919050565b82818337600083830152505050565b6000610d8a610d8584610d37565b610d1c565b905082815260208101848484011115610da657610da5610cb7565b5b610db1848285610d68565b509392505050565b600082601f830112610dce57610dcd610cb2565b5b8135610dde848260208601610d77565b91505092915050565b610df081610b9e565b8114610dfb57600080fd5b50565b600081359050610e0d81610de7565b92915050565b600080600060608486031215610e2c57610e2b6109c9565b5b600084013567ffffffffffffffff811115610e4a57610e496109ce565b5b610e5686828701610db9565b9350506020610e67868287016109f4565b9250506040610e7886828701610dfe565b9150509250925092565b7f6d616e616765722070726976696c65676573206f6e6c79000000000000000000600082015250565b6000610eb8601783610bca565b9150610ec382610e82565b602082019050919050565b60006020820190508181036000830152610ee781610eab565b9050919050565b7f4e487b7100000000000000000000000000000000000000000000000000000000600052601260045260246000fd5b7f4e487b7100000000000000000000000000000000000000000000000000000000600052601160045260246000fd5b6000610f57826109d3565b9150610f62836109d3565b925082610f7257610f71610eee565b5b828204905092915050565b7f4e487b7100000000000000000000000000000000000000000000000000000000600052602260045260246000fd5b60006002820490506001821680610fc457607f821691505b60208210811415610fd857610fd7610f7d565b5b50919050565b6000610fe9826109d3565b91507fffffffffffffffffffffffffffffffffffffffffffffffffffffffffffffffff82141561101c5761101b610f1d565b5b600182019050919050565b7f6d696e696d756d20636f6e747269627574696f6e207265717569726564000000600082015250565b600061105d601d83610bca565b915061106882611027565b602082019050919050565b6000602082019050818103600083015261108c81611050565b905091905056fea264697066735822122084c72b14a1a5155919fb2fe4f693dc7e2206fe1d7ea81587e1d2522e9794dcba64736f6c634300080c0033a26469706673582212205dea2444d953c727803a598e3975f7f20e2def6bfbd6d0427eeb62f003891bb664736f6c634300080c0033",
      "opcodes": "PUSH1 0x80 PUSH1 0x40 MSTORE CALLVALUE DUP1 ISZERO PUSH2 0x10 JUMPI PUSH1 0x0 DUP1 REVERT JUMPDEST POP PUSH2 0x16EC DUP1 PUSH2 0x20 PUSH1 0x0 CODECOPY PUSH1 0x0 RETURN INVALID PUSH1 0x80 PUSH1 0x40 MSTORE CALLVALUE DUP1 ISZERO PUSH2 0x10 JUMPI PUSH1 0x0 DUP1 REVERT JUMPDEST POP PUSH1 0x4 CALLDATASIZE LT PUSH2 0x41 JUMPI PUSH1 0x0 CALLDATALOAD PUSH1 0xE0 SHR DUP1 PUSH4 0x141961BC EQ PUSH2 0x46 JUMPI DUP1 PUSH4 0xA3303A75 EQ PUSH2 0x76 JUMPI DUP1 PUSH4 0xA6B03633 EQ PUSH2 0x92 JUMPI JUMPDEST PUSH1 0x0 DUP1 REVERT JUMPDEST PUSH2 0x60 PUSH1 0x4 DUP1 CALLDATASIZE SUB DUP2 ADD SWAP1 PUSH2 0x5B SWAP2 SWAP1 PUSH2 0x266 JUMP JUMPDEST PUSH2 0xB0 JUMP JUMPDEST PUSH1 0x40 MLOAD PUSH2 0x6D SWAP2 SWAP1 PUSH2 0x312 JUMP JUMPDEST PUSH1 0x40 MLOAD DUP1 SWAP2 SUB SWAP1 RETURN JUMPDEST PUSH2 0x90 PUSH1 0x4 DUP1 CALLDATASIZE SUB DUP2 ADD SWAP1 PUSH2 0x8B SWAP2 SWAP1 PUSH2 0x266 JUMP JUMPDEST PUSH2 0xEF JUMP JUMPDEST STOP JUMPDEST PUSH2 0x9A PUSH2 0x190 JUMP JUMPDEST PUSH1 0x40 MLOAD PUSH2 0xA7 SWAP2 SWAP1 PUSH2 0x3EB JUMP JUMPDEST PUSH1 0x40 MLOAD DUP1 SWAP2 SUB SWAP1 RETURN JUMPDEST PUSH1 0x0 DUP2 DUP2 SLOAD DUP2 LT PUSH2 0xC0 JUMPI PUSH1 0x0 DUP1 REVERT JUMPDEST SWAP1 PUSH1 0x0 MSTORE PUSH1 0x20 PUSH1 0x0 KECCAK256 ADD PUSH1 0x0 SWAP2 POP SLOAD SWAP1 PUSH2 0x100 EXP SWAP1 DIV PUSH20 0xFFFFFFFFFFFFFFFFFFFFFFFFFFFFFFFFFFFFFFFF AND DUP2 JUMP JUMPDEST PUSH1 0x0 DUP2 CALLER PUSH1 0x40 MLOAD PUSH2 0xFF SWAP1 PUSH2 0x21E JUMP JUMPDEST PUSH2 0x10A SWAP3 SWAP2 SWAP1 PUSH2 0x43D JUMP JUMPDEST PUSH1 0x40 MLOAD DUP1 SWAP2 SUB SWAP1 PUSH1 0x0 CREATE DUP1 ISZERO DUP1 ISZERO PUSH2 0x126 JUMPI RETURNDATASIZE PUSH1 0x0 DUP1 RETURNDATACOPY RETURNDATASIZE PUSH1 0x0 REVERT JUMPDEST POP SWAP1 POP PUSH1 0x0 DUP2 SWAP1 DUP1 PUSH1 0x1 DUP2 SLOAD ADD DUP1 DUP3 SSTORE DUP1 SWAP2 POP POP PUSH1 0x1 SWAP1 SUB SWAP1 PUSH1 0x0 MSTORE PUSH1 0x20 PUSH1 0x0 KECCAK256 ADD PUSH1 0x0 SWAP1 SWAP2 SWAP1 SWAP2 SWAP1 SWAP2 PUSH2 0x100 EXP DUP2 SLOAD DUP2 PUSH20 0xFFFFFFFFFFFFFFFFFFFFFFFFFFFFFFFFFFFFFFFF MUL NOT AND SWAP1 DUP4 PUSH20 0xFFFFFFFFFFFFFFFFFFFFFFFFFFFFFFFFFFFFFFFF AND MUL OR SWAP1 SSTORE POP POP POP JUMP JUMPDEST PUSH1 0x60 PUSH1 0x0 DUP1 SLOAD DUP1 PUSH1 0x20 MUL PUSH1 0x20 ADD PUSH1 0x40 MLOAD SWAP1 DUP2 ADD PUSH1 0x40 MSTORE DUP1 SWAP3 SWAP2 SWAP1 DUP2 DUP2 MSTORE PUSH1 0x20 ADD DUP3 DUP1 SLOAD DUP1 ISZERO PUSH2 0x214 JUMPI PUSH1 0x20 MUL DUP3 ADD SWAP2 SWAP1 PUSH1 0x0 MSTORE PUSH1 0x20 PUSH1 0x0 KECCAK256 SWAP1 JUMPDEST DUP2 PUSH1 0x0 SWAP1 SLOAD SWAP1 PUSH2 0x100 EXP SWAP1 DIV PUSH20 0xFFFFFFFFFFFFFFFFFFFFFFFFFFFFFFFFFFFFFFFF AND PUSH20 0xFFFFFFFFFFFFFFFFFFFFFFFFFFFFFFFFFFFFFFFF AND DUP2 MSTORE PUSH1 0x20 ADD SWAP1 PUSH1 0x1 ADD SWAP1 DUP1 DUP4 GT PUSH2 0x1CA JUMPI JUMPDEST POP POP POP POP POP SWAP1 POP SWAP1 JUMP JUMPDEST PUSH2 0x1250 DUP1 PUSH2 0x467 DUP4 CODECOPY ADD SWAP1 JUMP JUMPDEST PUSH1 0x0 DUP1 REVERT JUMPDEST PUSH1 0x0 DUP2 SWAP1 POP SWAP2 SWAP1 POP JUMP JUMPDEST PUSH2 0x243 DUP2 PUSH2 0x230 JUMP JUMPDEST DUP2 EQ PUSH2 0x24E JUMPI PUSH1 0x0 DUP1 REVERT JUMPDEST POP JUMP JUMPDEST PUSH1 0x0 DUP2 CALLDATALOAD SWAP1 POP PUSH2 0x260 DUP2 PUSH2 0x23A JUMP JUMPDEST SWAP3 SWAP2 POP POP JUMP JUMPDEST PUSH1 0x0 PUSH1 0x20 DUP3 DUP5 SUB SLT ISZERO PUSH2 0x27C JUMPI PUSH2 0x27B PUSH2 0x22B JUMP JUMPDEST JUMPDEST PUSH1 0x0 PUSH2 0x28A DUP5 DUP3 DUP6 ADD PUSH2 0x251 JUMP JUMPDEST SWAP2 POP POP SWAP3 SWAP2 POP POP JUMP JUMPDEST PUSH1 0x0 PUSH20 0xFFFFFFFFFFFFFFFFFFFFFFFFFFFFFFFFFFFFFFFF DUP3 AND SWAP1 POP SWAP2 SWAP1 POP JUMP JUMPDEST PUSH1 0x0 DUP2 SWAP1 POP SWAP2 SWAP1 POP JUMP JUMPDEST PUSH1 0x0 PUSH2 0x2D8 PUSH2 0x2D3 PUSH2 0x2CE DUP5 PUSH2 0x293 JUMP JUMPDEST PUSH2 0x2B3 JUMP JUMPDEST PUSH2 0x293 JUMP JUMPDEST SWAP1 POP SWAP2 SWAP1 POP JUMP JUMPDEST PUSH1 0x0 PUSH2 0x2EA DUP3 PUSH2 0x2BD JUMP JUMPDEST SWAP1 POP SWAP2 SWAP1 POP JUMP JUMPDEST PUSH1 0x0 PUSH2 0x2FC DUP3 PUSH2 0x2DF JUMP JUMPDEST SWAP1 POP SWAP2 SWAP1 POP JUMP JUMPDEST PUSH2 0x30C DUP2 PUSH2 0x2F1 JUMP JUMPDEST DUP3 MSTORE POP POP JUMP JUMPDEST PUSH1 0x0 PUSH1 0x20 DUP3 ADD SWAP1 POP PUSH2 0x327 PUSH1 0x0 DUP4 ADD DUP5 PUSH2 0x303 JUMP JUMPDEST SWAP3 SWAP2 POP POP JUMP JUMPDEST PUSH1 0x0 DUP2 MLOAD SWAP1 POP SWAP2 SWAP1 POP JUMP JUMPDEST PUSH1 0x0 DUP3 DUP3 MSTORE PUSH1 0x20 DUP3 ADD SWAP1 POP SWAP3 SWAP2 POP POP JUMP JUMPDEST PUSH1 0x0 DUP2 SWAP1 POP PUSH1 0x20 DUP3 ADD SWAP1 POP SWAP2 SWAP1 POP JUMP JUMPDEST PUSH2 0x362 DUP2 PUSH2 0x2F1 JUMP JUMPDEST DUP3 MSTORE POP POP JUMP JUMPDEST PUSH1 0x0 PUSH2 0x374 DUP4 DUP4 PUSH2 0x359 JUMP JUMPDEST PUSH1 0x20 DUP4 ADD SWAP1 POP SWAP3 SWAP2 POP POP JUMP JUMPDEST PUSH1 0x0 PUSH1 0x20 DUP3 ADD SWAP1 POP SWAP2 SWAP1 POP JUMP JUMPDEST PUSH1 0x0 PUSH2 0x398 DUP3 PUSH2 0x32D JUMP JUMPDEST PUSH2 0x3A2 DUP2 DUP6 PUSH2 0x338 JUMP JUMPDEST SWAP4 POP PUSH2 0x3AD DUP4 PUSH2 0x349 JUMP JUMPDEST DUP1 PUSH1 0x0 JUMPDEST DUP4 DUP2 LT ISZERO PUSH2 0x3DE JUMPI DUP2 MLOAD PUSH2 0x3C5 DUP9 DUP3 PUSH2 0x368 JUMP JUMPDEST SWAP8 POP PUSH2 0x3D0 DUP4 PUSH2 0x380 JUMP JUMPDEST SWAP3 POP POP PUSH1 0x1 DUP2 ADD SWAP1 POP PUSH2 0x3B1 JUMP JUMPDEST POP DUP6 SWAP4 POP POP POP POP SWAP3 SWAP2 POP POP JUMP JUMPDEST PUSH1 0x0 PUSH1 0x20 DUP3 ADD SWAP1 POP DUP2 DUP2 SUB PUSH1 0x0 DUP4 ADD MSTORE PUSH2 0x405 DUP2 DUP5 PUSH2 0x38D JUMP JUMPDEST SWAP1 POP SWAP3 SWAP2 POP POP JUMP JUMPDEST PUSH2 0x416 DUP2 PUSH2 0x230 JUMP JUMPDEST DUP3 MSTORE POP POP JUMP JUMPDEST PUSH1 0x0 PUSH2 0x427 DUP3 PUSH2 0x293 JUMP JUMPDEST SWAP1 POP SWAP2 SWAP1 POP JUMP JUMPDEST PUSH2 0x437 DUP2 PUSH2 0x41C JUMP JUMPDEST DUP3 MSTORE POP POP JUMP JUMPDEST PUSH1 0x0 PUSH1 0x40 DUP3 ADD SWAP1 POP PUSH2 0x452 PUSH1 0x0 DUP4 ADD DUP6 PUSH2 0x40D JUMP JUMPDEST PUSH2 0x45F PUSH1 0x20 DUP4 ADD DUP5 PUSH2 0x42E JUMP JUMPDEST SWAP4 SWAP3 POP POP POP JUMP INVALID PUSH1 0x80 PUSH1 0x40 MSTORE PUSH1 0x0 PUSH1 0x4 SSTORE CALLVALUE DUP1 ISZERO PUSH3 0x16 JUMPI PUSH1 0x0 DUP1 REVERT JUMPDEST POP PUSH1 0x40 MLOAD PUSH3 0x1250 CODESIZE SUB DUP1 PUSH3 0x1250 DUP4 CODECOPY DUP2 DUP2 ADD PUSH1 0x40 MSTORE DUP2 ADD SWAP1 PUSH3 0x3C SWAP2 SWAP1 PUSH3 0x130 JUMP JUMPDEST DUP1 PUSH1 0x0 DUP1 PUSH2 0x100 EXP DUP2 SLOAD DUP2 PUSH20 0xFFFFFFFFFFFFFFFFFFFFFFFFFFFFFFFFFFFFFFFF MUL NOT AND SWAP1 DUP4 PUSH20 0xFFFFFFFFFFFFFFFFFFFFFFFFFFFFFFFFFFFFFFFF AND MUL OR SWAP1 SSTORE POP DUP2 PUSH1 0x1 DUP2 SWAP1 SSTORE POP POP POP PUSH3 0x177 JUMP JUMPDEST PUSH1 0x0 DUP1 REVERT JUMPDEST PUSH1 0x0 DUP2 SWAP1 POP SWAP2 SWAP1 POP JUMP JUMPDEST PUSH3 0xA5 DUP2 PUSH3 0x90 JUMP JUMPDEST DUP2 EQ PUSH3 0xB1 JUMPI PUSH1 0x0 DUP1 REVERT JUMPDEST POP JUMP JUMPDEST PUSH1 0x0 DUP2 MLOAD SWAP1 POP PUSH3 0xC5 DUP2 PUSH3 0x9A JUMP JUMPDEST SWAP3 SWAP2 POP POP JUMP JUMPDEST PUSH1 0x0 PUSH20 0xFFFFFFFFFFFFFFFFFFFFFFFFFFFFFFFFFFFFFFFF DUP3 AND SWAP1 POP SWAP2 SWAP1 POP JUMP JUMPDEST PUSH1 0x0 PUSH3 0xF8 DUP3 PUSH3 0xCB JUMP JUMPDEST SWAP1 POP SWAP2 SWAP1 POP JUMP JUMPDEST PUSH3 0x10A DUP2 PUSH3 0xEB JUMP JUMPDEST DUP2 EQ PUSH3 0x116 JUMPI PUSH1 0x0 DUP1 REVERT JUMPDEST POP JUMP JUMPDEST PUSH1 0x0 DUP2 MLOAD SWAP1 POP PUSH3 0x12A DUP2 PUSH3 0xFF JUMP JUMPDEST SWAP3 SWAP2 POP POP JUMP JUMPDEST PUSH1 0x0 DUP1 PUSH1 0x40 DUP4 DUP6 SUB SLT ISZERO PUSH3 0x14A JUMPI PUSH3 0x149 PUSH3 0x8B JUMP JUMPDEST JUMPDEST PUSH1 0x0 PUSH3 0x15A DUP6 DUP3 DUP7 ADD PUSH3 0xB4 JUMP JUMPDEST SWAP3 POP POP PUSH1 0x20 PUSH3 0x16D DUP6 DUP3 DUP7 ADD PUSH3 0x119 JUMP JUMPDEST SWAP2 POP POP SWAP3 POP SWAP3 SWAP1 POP JUMP JUMPDEST PUSH2 0x10C9 DUP1 PUSH3 0x187 PUSH1 0x0 CODECOPY PUSH1 0x0 RETURN INVALID PUSH1 0x80 PUSH1 0x40 MSTORE PUSH1 0x4 CALLDATASIZE LT PUSH2 0xA7 JUMPI PUSH1 0x0 CALLDATALOAD PUSH1 0xE0 SHR DUP1 PUSH4 0x82FDE093 GT PUSH2 0x64 JUMPI DUP1 PUSH4 0x82FDE093 EQ PUSH2 0x1D8 JUMPI DUP1 PUSH4 0x8A9CFD55 EQ PUSH2 0x203 JUMPI DUP1 PUSH4 0x937E09B1 EQ PUSH2 0x22C JUMPI DUP1 PUSH4 0xD7BB99BA EQ PUSH2 0x257 JUMPI DUP1 PUSH4 0xD7D1BBDB EQ PUSH2 0x261 JUMPI DUP1 PUSH4 0xFBFA4B7F EQ PUSH2 0x28A JUMPI PUSH2 0xA7 JUMP JUMPDEST DUP1 PUSH4 0x3441006 EQ PUSH2 0xAC JUMPI DUP1 PUSH4 0xA144391 EQ PUSH2 0xD5 JUMPI DUP1 PUSH4 0xC611F24 EQ PUSH2 0x112 JUMPI DUP1 PUSH4 0x3410452A EQ PUSH2 0x141 JUMPI DUP1 PUSH4 0x481C6A75 EQ PUSH2 0x16C JUMPI DUP1 PUSH4 0x81D12C58 EQ PUSH2 0x197 JUMPI JUMPDEST PUSH1 0x0 DUP1 REVERT JUMPDEST CALLVALUE DUP1 ISZERO PUSH2 0xB8 JUMPI PUSH1 0x0 DUP1 REVERT JUMPDEST POP PUSH2 0xD3 PUSH1 0x4 DUP1 CALLDATASIZE SUB DUP2 ADD SWAP1 PUSH2 0xCE SWAP2 SWAP1 PUSH2 0xA09 JUMP JUMPDEST PUSH2 0x2B5 JUMP JUMPDEST STOP JUMPDEST CALLVALUE DUP1 ISZERO PUSH2 0xE1 JUMPI PUSH1 0x0 DUP1 REVERT JUMPDEST POP PUSH2 0xFC PUSH1 0x4 DUP1 CALLDATASIZE SUB DUP2 ADD SWAP1 PUSH2 0xF7 SWAP2 SWAP1 PUSH2 0xA94 JUMP JUMPDEST PUSH2 0x423 JUMP JUMPDEST PUSH1 0x40 MLOAD PUSH2 0x109 SWAP2 SWAP1 PUSH2 0xADC JUMP JUMPDEST PUSH1 0x40 MLOAD DUP1 SWAP2 SUB SWAP1 RETURN JUMPDEST CALLVALUE DUP1 ISZERO PUSH2 0x11E JUMPI PUSH1 0x0 DUP1 REVERT JUMPDEST POP PUSH2 0x127 PUSH2 0x443 JUMP JUMPDEST PUSH1 0x40 MLOAD PUSH2 0x138 SWAP6 SWAP5 SWAP4 SWAP3 SWAP2 SWAP1 PUSH2 0xB15 JUMP JUMPDEST PUSH1 0x40 MLOAD DUP1 SWAP2 SUB SWAP1 RETURN JUMPDEST CALLVALUE DUP1 ISZERO PUSH2 0x14D JUMPI PUSH1 0x0 DUP1 REVERT JUMPDEST POP PUSH2 0x156 PUSH2 0x487 JUMP JUMPDEST PUSH1 0x40 MLOAD PUSH2 0x163 SWAP2 SWAP1 PUSH2 0xB68 JUMP JUMPDEST PUSH1 0x40 MLOAD DUP1 SWAP2 SUB SWAP1 RETURN JUMPDEST CALLVALUE DUP1 ISZERO PUSH2 0x178 JUMPI PUSH1 0x0 DUP1 REVERT JUMPDEST POP PUSH2 0x181 PUSH2 0x491 JUMP JUMPDEST PUSH1 0x40 MLOAD PUSH2 0x18E SWAP2 SWAP1 PUSH2 0xB83 JUMP JUMPDEST PUSH1 0x40 MLOAD DUP1 SWAP2 SUB SWAP1 RETURN JUMPDEST CALLVALUE DUP1 ISZERO PUSH2 0x1A3 JUMPI PUSH1 0x0 DUP1 REVERT JUMPDEST POP PUSH2 0x1BE PUSH1 0x4 DUP1 CALLDATASIZE SUB DUP2 ADD SWAP1 PUSH2 0x1B9 SWAP2 SWAP1 PUSH2 0xA09 JUMP JUMPDEST PUSH2 0x4B5 JUMP JUMPDEST PUSH1 0x40 MLOAD PUSH2 0x1CF SWAP6 SWAP5 SWAP4 SWAP3 SWAP2 SWAP1 PUSH2 0xC58 JUMP JUMPDEST PUSH1 0x40 MLOAD DUP1 SWAP2 SUB SWAP1 RETURN JUMPDEST CALLVALUE DUP1 ISZERO PUSH2 0x1E4 JUMPI PUSH1 0x0 DUP1 REVERT JUMPDEST POP PUSH2 0x1ED PUSH2 0x5A0 JUMP JUMPDEST PUSH1 0x40 MLOAD PUSH2 0x1FA SWAP2 SWAP1 PUSH2 0xB68 JUMP JUMPDEST PUSH1 0x40 MLOAD DUP1 SWAP2 SUB SWAP1 RETURN JUMPDEST CALLVALUE DUP1 ISZERO PUSH2 0x20F JUMPI PUSH1 0x0 DUP1 REVERT JUMPDEST POP PUSH2 0x22A PUSH1 0x4 DUP1 CALLDATASIZE SUB DUP2 ADD SWAP1 PUSH2 0x225 SWAP2 SWAP1 PUSH2 0xE13 JUMP JUMPDEST PUSH2 0x5A6 JUMP JUMPDEST STOP JUMPDEST CALLVALUE DUP1 ISZERO PUSH2 0x238 JUMPI PUSH1 0x0 DUP1 REVERT JUMPDEST POP PUSH2 0x241 PUSH2 0x71C JUMP JUMPDEST PUSH1 0x40 MLOAD PUSH2 0x24E SWAP2 SWAP1 PUSH2 0xB68 JUMP JUMPDEST PUSH1 0x40 MLOAD DUP1 SWAP2 SUB SWAP1 RETURN JUMPDEST PUSH2 0x25F PUSH2 0x722 JUMP JUMPDEST STOP JUMPDEST CALLVALUE DUP1 ISZERO PUSH2 0x26D JUMPI PUSH1 0x0 DUP1 REVERT JUMPDEST POP PUSH2 0x288 PUSH1 0x4 DUP1 CALLDATASIZE SUB DUP2 ADD SWAP1 PUSH2 0x283 SWAP2 SWAP1 PUSH2 0xA09 JUMP JUMPDEST PUSH2 0x7D8 JUMP JUMPDEST STOP JUMPDEST CALLVALUE DUP1 ISZERO PUSH2 0x296 JUMPI PUSH1 0x0 DUP1 REVERT JUMPDEST POP PUSH2 0x29F PUSH2 0x916 JUMP JUMPDEST PUSH1 0x40 MLOAD PUSH2 0x2AC SWAP2 SWAP1 PUSH2 0xB68 JUMP JUMPDEST PUSH1 0x40 MLOAD DUP1 SWAP2 SUB SWAP1 RETURN JUMPDEST PUSH1 0x0 DUP1 SLOAD SWAP1 PUSH2 0x100 EXP SWAP1 DIV PUSH20 0xFFFFFFFFFFFFFFFFFFFFFFFFFFFFFFFFFFFFFFFF AND PUSH20 0xFFFFFFFFFFFFFFFFFFFFFFFFFFFFFFFFFFFFFFFF AND CALLER PUSH20 0xFFFFFFFFFFFFFFFFFFFFFFFFFFFFFFFFFFFFFFFF AND EQ PUSH2 0x343 JUMPI PUSH1 0x40 MLOAD PUSH32 0x8C379A000000000000000000000000000000000000000000000000000000000 DUP2 MSTORE PUSH1 0x4 ADD PUSH2 0x33A SWAP1 PUSH2 0xECE JUMP JUMPDEST PUSH1 0x40 MLOAD DUP1 SWAP2 SUB SWAP1 REVERT JUMPDEST PUSH1 0x0 PUSH1 0x6 PUSH1 0x0 DUP4 DUP2 MSTORE PUSH1 0x20 ADD SWAP1 DUP2 MSTORE PUSH1 0x20 ADD PUSH1 0x0 KECCAK256 SWAP1 POP PUSH1 0x2 DUP1 SLOAD PUSH2 0x368 SWAP2 SWAP1 PUSH2 0xF4C JUMP JUMPDEST DUP2 PUSH1 0x3 ADD SLOAD GT PUSH2 0x377 JUMPI PUSH1 0x0 DUP1 REVERT JUMPDEST DUP1 PUSH1 0x4 ADD PUSH1 0x0 SWAP1 SLOAD SWAP1 PUSH2 0x100 EXP SWAP1 DIV PUSH1 0xFF AND ISZERO PUSH2 0x393 JUMPI PUSH1 0x0 DUP1 REVERT JUMPDEST DUP1 PUSH1 0x0 ADD PUSH1 0x0 SWAP1 SLOAD SWAP1 PUSH2 0x100 EXP SWAP1 DIV PUSH20 0xFFFFFFFFFFFFFFFFFFFFFFFFFFFFFFFFFFFFFFFF AND PUSH20 0xFFFFFFFFFFFFFFFFFFFFFFFFFFFFFFFFFFFFFFFF AND PUSH2 0x8FC DUP3 PUSH1 0x2 ADD SLOAD SWAP1 DUP2 ISZERO MUL SWAP1 PUSH1 0x40 MLOAD PUSH1 0x0 PUSH1 0x40 MLOAD DUP1 DUP4 SUB DUP2 DUP6 DUP9 DUP9 CALL SWAP4 POP POP POP POP ISZERO DUP1 ISZERO PUSH2 0x401 JUMPI RETURNDATASIZE PUSH1 0x0 DUP1 RETURNDATACOPY RETURNDATASIZE PUSH1 0x0 REVERT JUMPDEST POP PUSH1 0x1 DUP2 PUSH1 0x4 ADD PUSH1 0x0 PUSH2 0x100 EXP DUP2 SLOAD DUP2 PUSH1 0xFF MUL NOT AND SWAP1 DUP4 ISZERO ISZERO MUL OR SWAP1 SSTORE POP POP POP JUMP JUMPDEST PUSH1 0x5 PUSH1 0x20 MSTORE DUP1 PUSH1 0x0 MSTORE PUSH1 0x40 PUSH1 0x0 KECCAK256 PUSH1 0x0 SWAP2 POP SLOAD SWAP1 PUSH2 0x100 EXP SWAP1 DIV PUSH1 0xFF AND DUP2 JUMP JUMPDEST PUSH1 0x0 DUP1 PUSH1 0x0 DUP1 PUSH1 0x0 PUSH1 0x1 SLOAD SELFBALANCE PUSH1 0x3 SLOAD PUSH1 0x2 SLOAD PUSH1 0x0 DUP1 SLOAD SWAP1 PUSH2 0x100 EXP SWAP1 DIV PUSH20 0xFFFFFFFFFFFFFFFFFFFFFFFFFFFFFFFFFFFFFFFF AND SWAP5 POP SWAP5 POP SWAP5 POP SWAP5 POP SWAP5 POP SWAP1 SWAP2 SWAP3 SWAP4 SWAP5 JUMP JUMPDEST PUSH1 0x0 PUSH1 0x3 SLOAD SWAP1 POP SWAP1 JUMP JUMPDEST PUSH1 0x0 DUP1 SLOAD SWAP1 PUSH2 0x100 EXP SWAP1 DIV PUSH20 0xFFFFFFFFFFFFFFFFFFFFFFFFFFFFFFFFFFFFFFFF AND DUP2 JUMP JUMPDEST PUSH1 0x6 PUSH1 0x20 MSTORE DUP1 PUSH1 0x0 MSTORE PUSH1 0x40 PUSH1 0x0 KECCAK256 PUSH1 0x0 SWAP2 POP SWAP1 POP DUP1 PUSH1 0x0 ADD PUSH1 0x0 SWAP1 SLOAD SWAP1 PUSH2 0x100 EXP SWAP1 DIV PUSH20 0xFFFFFFFFFFFFFFFFFFFFFFFFFFFFFFFFFFFFFFFF AND SWAP1 DUP1 PUSH1 0x1 ADD DUP1 SLOAD PUSH2 0x4FE SWAP1 PUSH2 0xFAC JUMP JUMPDEST DUP1 PUSH1 0x1F ADD PUSH1 0x20 DUP1 SWAP2 DIV MUL PUSH1 0x20 ADD PUSH1 0x40 MLOAD SWAP1 DUP2 ADD PUSH1 0x40 MSTORE DUP1 SWAP3 SWAP2 SWAP1 DUP2 DUP2 MSTORE PUSH1 0x20 ADD DUP3 DUP1 SLOAD PUSH2 0x52A SWAP1 PUSH2 0xFAC JUMP JUMPDEST DUP1 ISZERO PUSH2 0x577 JUMPI DUP1 PUSH1 0x1F LT PUSH2 0x54C JUMPI PUSH2 0x100 DUP1 DUP4 SLOAD DIV MUL DUP4 MSTORE SWAP2 PUSH1 0x20 ADD SWAP2 PUSH2 0x577 JUMP JUMPDEST DUP3 ADD SWAP2 SWAP1 PUSH1 0x0 MSTORE PUSH1 0x20 PUSH1 0x0 KECCAK256 SWAP1 JUMPDEST DUP2 SLOAD DUP2 MSTORE SWAP1 PUSH1 0x1 ADD SWAP1 PUSH1 0x20 ADD DUP1 DUP4 GT PUSH2 0x55A JUMPI DUP3 SWAP1 SUB PUSH1 0x1F AND DUP3 ADD SWAP2 JUMPDEST POP POP POP POP POP SWAP1 DUP1 PUSH1 0x2 ADD SLOAD SWAP1 DUP1 PUSH1 0x3 ADD SLOAD SWAP1 DUP1 PUSH1 0x4 ADD PUSH1 0x0 SWAP1 SLOAD SWAP1 PUSH2 0x100 EXP SWAP1 DIV PUSH1 0xFF AND SWAP1 POP DUP6 JUMP JUMPDEST PUSH1 0x2 SLOAD DUP2 JUMP JUMPDEST PUSH1 0x0 DUP1 SLOAD SWAP1 PUSH2 0x100 EXP SWAP1 DIV PUSH20 0xFFFFFFFFFFFFFFFFFFFFFFFFFFFFFFFFFFFFFFFF AND PUSH20 0xFFFFFFFFFFFFFFFFFFFFFFFFFFFFFFFFFFFFFFFF AND CALLER PUSH20 0xFFFFFFFFFFFFFFFFFFFFFFFFFFFFFFFFFFFFFFFF AND EQ PUSH2 0x634 JUMPI PUSH1 0x40 MLOAD PUSH32 0x8C379A000000000000000000000000000000000000000000000000000000000 DUP2 MSTORE PUSH1 0x4 ADD PUSH2 0x62B SWAP1 PUSH2 0xECE JUMP JUMPDEST PUSH1 0x40 MLOAD DUP1 SWAP2 SUB SWAP1 REVERT JUMPDEST SELFBALANCE DUP3 GT ISZERO PUSH2 0x641 JUMPI PUSH1 0x0 DUP1 REVERT JUMPDEST PUSH1 0x0 PUSH1 0x6 PUSH1 0x0 PUSH1 0x4 SLOAD DUP2 MSTORE PUSH1 0x20 ADD SWAP1 DUP2 MSTORE PUSH1 0x20 ADD PUSH1 0x0 KECCAK256 SWAP1 POP DUP4 DUP2 PUSH1 0x1 ADD SWAP1 DUP1 MLOAD SWAP1 PUSH1 0x20 ADD SWAP1 PUSH2 0x672 SWAP3 SWAP2 SWAP1 PUSH2 0x91C JUMP JUMPDEST POP DUP2 DUP2 PUSH1 0x0 ADD PUSH1 0x0 PUSH2 0x100 EXP DUP2 SLOAD DUP2 PUSH20 0xFFFFFFFFFFFFFFFFFFFFFFFFFFFFFFFFFFFFFFFF MUL NOT AND SWAP1 DUP4 PUSH20 0xFFFFFFFFFFFFFFFFFFFFFFFFFFFFFFFFFFFFFFFF AND MUL OR SWAP1 SSTORE POP DUP3 DUP2 PUSH1 0x2 ADD DUP2 SWAP1 SSTORE POP PUSH1 0x0 DUP2 PUSH1 0x4 ADD PUSH1 0x0 PUSH2 0x100 EXP DUP2 SLOAD DUP2 PUSH1 0xFF MUL NOT AND SWAP1 DUP4 ISZERO ISZERO MUL OR SWAP1 SSTORE POP PUSH1 0x0 DUP2 PUSH1 0x3 ADD DUP2 SWAP1 SSTORE POP PUSH1 0x4 PUSH1 0x0 DUP2 SLOAD DUP1 SWAP3 SWAP2 SWAP1 PUSH2 0x6F9 SWAP1 PUSH2 0xFDE JUMP JUMPDEST SWAP2 SWAP1 POP SSTORE POP PUSH1 0x3 PUSH1 0x0 DUP2 SLOAD DUP1 SWAP3 SWAP2 SWAP1 PUSH2 0x711 SWAP1 PUSH2 0xFDE JUMP JUMPDEST SWAP2 SWAP1 POP SSTORE POP POP POP POP POP JUMP JUMPDEST PUSH1 0x1 SLOAD DUP2 JUMP JUMPDEST PUSH1 0x1 SLOAD CALLVALUE GT PUSH2 0x766 JUMPI PUSH1 0x40 MLOAD PUSH32 0x8C379A000000000000000000000000000000000000000000000000000000000 DUP2 MSTORE PUSH1 0x4 ADD PUSH2 0x75D SWAP1 PUSH2 0x1073 JUMP JUMPDEST PUSH1 0x40 MLOAD DUP1 SWAP2 SUB SWAP1 REVERT JUMPDEST PUSH1 0x1 PUSH1 0x5 PUSH1 0x0 CALLER PUSH20 0xFFFFFFFFFFFFFFFFFFFFFFFFFFFFFFFFFFFFFFFF AND PUSH20 0xFFFFFFFFFFFFFFFFFFFFFFFFFFFFFFFFFFFFFFFF AND DUP2 MSTORE PUSH1 0x20 ADD SWAP1 DUP2 MSTORE PUSH1 0x20 ADD PUSH1 0x0 KECCAK256 PUSH1 0x0 PUSH2 0x100 EXP DUP2 SLOAD DUP2 PUSH1 0xFF MUL NOT AND SWAP1 DUP4 ISZERO ISZERO MUL OR SWAP1 SSTORE POP PUSH1 0x2 PUSH1 0x0 DUP2 SLOAD DUP1 SWAP3 SWAP2 SWAP1 PUSH2 0x7D1 SWAP1 PUSH2 0xFDE JUMP JUMPDEST SWAP2 SWAP1 POP SSTORE POP JUMP JUMPDEST PUSH1 0x0 PUSH1 0x6 PUSH1 0x0 DUP4 DUP2 MSTORE PUSH1 0x20 ADD SWAP1 DUP2 MSTORE PUSH1 0x20 ADD PUSH1 0x0 KECCAK256 SWAP1 POP PUSH1 0x5 PUSH1 0x0 CALLER PUSH20 0xFFFFFFFFFFFFFFFFFFFFFFFFFFFFFFFFFFFFFFFF AND PUSH20 0xFFFFFFFFFFFFFFFFFFFFFFFFFFFFFFFFFFFFFFFF AND DUP2 MSTORE PUSH1 0x20 ADD SWAP1 DUP2 MSTORE PUSH1 0x20 ADD PUSH1 0x0 KECCAK256 PUSH1 0x0 SWAP1 SLOAD SWAP1 PUSH2 0x100 EXP SWAP1 DIV PUSH1 0xFF AND PUSH2 0x845 JUMPI PUSH1 0x0 DUP1 REVERT JUMPDEST DUP1 PUSH1 0x5 ADD PUSH1 0x0 CALLER PUSH20 0xFFFFFFFFFFFFFFFFFFFFFFFFFFFFFFFFFFFFFFFF AND PUSH20 0xFFFFFFFFFFFFFFFFFFFFFFFFFFFFFFFFFFFFFFFF AND DUP2 MSTORE PUSH1 0x20 ADD SWAP1 DUP2 MSTORE PUSH1 0x20 ADD PUSH1 0x0 KECCAK256 PUSH1 0x0 SWAP1 SLOAD SWAP1 PUSH2 0x100 EXP SWAP1 DIV PUSH1 0xFF AND ISZERO PUSH2 0x89E JUMPI PUSH1 0x0 DUP1 REVERT JUMPDEST PUSH1 0x1 DUP2 PUSH1 0x5 ADD PUSH1 0x0 CALLER PUSH20 0xFFFFFFFFFFFFFFFFFFFFFFFFFFFFFFFFFFFFFFFF AND PUSH20 0xFFFFFFFFFFFFFFFFFFFFFFFFFFFFFFFFFFFFFFFF AND DUP2 MSTORE PUSH1 0x20 ADD SWAP1 DUP2 MSTORE PUSH1 0x20 ADD PUSH1 0x0 KECCAK256 PUSH1 0x0 PUSH2 0x100 EXP DUP2 SLOAD DUP2 PUSH1 0xFF MUL NOT AND SWAP1 DUP4 ISZERO ISZERO MUL OR SWAP1 SSTORE POP DUP1 PUSH1 0x3 ADD PUSH1 0x0 DUP2 SLOAD DUP1 SWAP3 SWAP2 SWAP1 PUSH2 0x90D SWAP1 PUSH2 0xFDE JUMP JUMPDEST SWAP2 SWAP1 POP SSTORE POP POP POP JUMP JUMPDEST PUSH1 0x3 SLOAD DUP2 JUMP JUMPDEST DUP3 DUP1 SLOAD PUSH2 0x928 SWAP1 PUSH2 0xFAC JUMP JUMPDEST SWAP1 PUSH1 0x0 MSTORE PUSH1 0x20 PUSH1 0x0 KECCAK256 SWAP1 PUSH1 0x1F ADD PUSH1 0x20 SWAP1 DIV DUP2 ADD SWAP3 DUP3 PUSH2 0x94A JUMPI PUSH1 0x0 DUP6 SSTORE PUSH2 0x991 JUMP JUMPDEST DUP3 PUSH1 0x1F LT PUSH2 0x963 JUMPI DUP1 MLOAD PUSH1 0xFF NOT AND DUP4 DUP1 ADD OR DUP6 SSTORE PUSH2 0x991 JUMP JUMPDEST DUP3 DUP1 ADD PUSH1 0x1 ADD DUP6 SSTORE DUP3 ISZERO PUSH2 0x991 JUMPI SWAP2 DUP3 ADD JUMPDEST DUP3 DUP2 GT ISZERO PUSH2 0x990 JUMPI DUP3 MLOAD DUP3 SSTORE SWAP2 PUSH1 0x20 ADD SWAP2 SWAP1 PUSH1 0x1 ADD SWAP1 PUSH2 0x975 JUMP JUMPDEST JUMPDEST POP SWAP1 POP PUSH2 0x99E SWAP2 SWAP1 PUSH2 0x9A2 JUMP JUMPDEST POP SWAP1 JUMP JUMPDEST JUMPDEST DUP1 DUP3 GT ISZERO PUSH2 0x9BB JUMPI PUSH1 0x0 DUP2 PUSH1 0x0 SWAP1 SSTORE POP PUSH1 0x1 ADD PUSH2 0x9A3 JUMP JUMPDEST POP SWAP1 JUMP JUMPDEST PUSH1 0x0 PUSH1 0x40 MLOAD SWAP1 POP SWAP1 JUMP JUMPDEST PUSH1 0x0 DUP1 REVERT JUMPDEST PUSH1 0x0 DUP1 REVERT JUMPDEST PUSH1 0x0 DUP2 SWAP1 POP SWAP2 SWAP1 POP JUMP JUMPDEST PUSH2 0x9E6 DUP2 PUSH2 0x9D3 JUMP JUMPDEST DUP2 EQ PUSH2 0x9F1 JUMPI PUSH1 0x0 DUP1 REVERT JUMPDEST POP JUMP JUMPDEST PUSH1 0x0 DUP2 CALLDATALOAD SWAP1 POP PUSH2 0xA03 DUP2 PUSH2 0x9DD JUMP JUMPDEST SWAP3 SWAP2 POP POP JUMP JUMPDEST PUSH1 0x0 PUSH1 0x20 DUP3 DUP5 SUB SLT ISZERO PUSH2 0xA1F JUMPI PUSH2 0xA1E PUSH2 0x9C9 JUMP JUMPDEST JUMPDEST PUSH1 0x0 PUSH2 0xA2D DUP5 DUP3 DUP6 ADD PUSH2 0x9F4 JUMP JUMPDEST SWAP2 POP POP SWAP3 SWAP2 POP POP JUMP JUMPDEST PUSH1 0x0 PUSH20 0xFFFFFFFFFFFFFFFFFFFFFFFFFFFFFFFFFFFFFFFF DUP3 AND SWAP1 POP SWAP2 SWAP1 POP JUMP JUMPDEST PUSH1 0x0 PUSH2 0xA61 DUP3 PUSH2 0xA36 JUMP JUMPDEST SWAP1 POP SWAP2 SWAP1 POP JUMP JUMPDEST PUSH2 0xA71 DUP2 PUSH2 0xA56 JUMP JUMPDEST DUP2 EQ PUSH2 0xA7C JUMPI PUSH1 0x0 DUP1 REVERT JUMPDEST POP JUMP JUMPDEST PUSH1 0x0 DUP2 CALLDATALOAD SWAP1 POP PUSH2 0xA8E DUP2 PUSH2 0xA68 JUMP JUMPDEST SWAP3 SWAP2 POP POP JUMP JUMPDEST PUSH1 0x0 PUSH1 0x20 DUP3 DUP5 SUB SLT ISZERO PUSH2 0xAAA JUMPI PUSH2 0xAA9 PUSH2 0x9C9 JUMP JUMPDEST JUMPDEST PUSH1 0x0 PUSH2 0xAB8 DUP5 DUP3 DUP6 ADD PUSH2 0xA7F JUMP JUMPDEST SWAP2 POP POP SWAP3 SWAP2 POP POP JUMP JUMPDEST PUSH1 0x0 DUP2 ISZERO ISZERO SWAP1 POP SWAP2 SWAP1 POP JUMP JUMPDEST PUSH2 0xAD6 DUP2 PUSH2 0xAC1 JUMP JUMPDEST DUP3 MSTORE POP POP JUMP JUMPDEST PUSH1 0x0 PUSH1 0x20 DUP3 ADD SWAP1 POP PUSH2 0xAF1 PUSH1 0x0 DUP4 ADD DUP5 PUSH2 0xACD JUMP JUMPDEST SWAP3 SWAP2 POP POP JUMP JUMPDEST PUSH2 0xB00 DUP2 PUSH2 0x9D3 JUMP JUMPDEST DUP3 MSTORE POP POP JUMP JUMPDEST PUSH2 0xB0F DUP2 PUSH2 0xA56 JUMP JUMPDEST DUP3 MSTORE POP POP JUMP JUMPDEST PUSH1 0x0 PUSH1 0xA0 DUP3 ADD SWAP1 POP PUSH2 0xB2A PUSH1 0x0 DUP4 ADD DUP9 PUSH2 0xAF7 JUMP JUMPDEST PUSH2 0xB37 PUSH1 0x20 DUP4 ADD DUP8 PUSH2 0xAF7 JUMP JUMPDEST PUSH2 0xB44 PUSH1 0x40 DUP4 ADD DUP7 PUSH2 0xAF7 JUMP JUMPDEST PUSH2 0xB51 PUSH1 0x60 DUP4 ADD DUP6 PUSH2 0xAF7 JUMP JUMPDEST PUSH2 0xB5E PUSH1 0x80 DUP4 ADD DUP5 PUSH2 0xB06 JUMP JUMPDEST SWAP7 SWAP6 POP POP POP POP POP POP JUMP JUMPDEST PUSH1 0x0 PUSH1 0x20 DUP3 ADD SWAP1 POP PUSH2 0xB7D PUSH1 0x0 DUP4 ADD DUP5 PUSH2 0xAF7 JUMP JUMPDEST SWAP3 SWAP2 POP POP JUMP JUMPDEST PUSH1 0x0 PUSH1 0x20 DUP3 ADD SWAP1 POP PUSH2 0xB98 PUSH1 0x0 DUP4 ADD DUP5 PUSH2 0xB06 JUMP JUMPDEST SWAP3 SWAP2 POP POP JUMP JUMPDEST PUSH1 0x0 PUSH2 0xBA9 DUP3 PUSH2 0xA36 JUMP JUMPDEST SWAP1 POP SWAP2 SWAP1 POP JUMP JUMPDEST PUSH2 0xBB9 DUP2 PUSH2 0xB9E JUMP JUMPDEST DUP3 MSTORE POP POP JUMP JUMPDEST PUSH1 0x0 DUP2 MLOAD SWAP1 POP SWAP2 SWAP1 POP JUMP JUMPDEST PUSH1 0x0 DUP3 DUP3 MSTORE PUSH1 0x20 DUP3 ADD SWAP1 POP SWAP3 SWAP2 POP POP JUMP JUMPDEST PUSH1 0x0 JUMPDEST DUP4 DUP2 LT ISZERO PUSH2 0xBF9 JUMPI DUP1 DUP3 ADD MLOAD DUP2 DUP5 ADD MSTORE PUSH1 0x20 DUP2 ADD SWAP1 POP PUSH2 0xBDE JUMP JUMPDEST DUP4 DUP2 GT ISZERO PUSH2 0xC08 JUMPI PUSH1 0x0 DUP5 DUP5 ADD MSTORE JUMPDEST POP POP POP POP JUMP JUMPDEST PUSH1 0x0 PUSH1 0x1F NOT PUSH1 0x1F DUP4 ADD AND SWAP1 POP SWAP2 SWAP1 POP JUMP JUMPDEST PUSH1 0x0 PUSH2 0xC2A DUP3 PUSH2 0xBBF JUMP JUMPDEST PUSH2 0xC34 DUP2 DUP6 PUSH2 0xBCA JUMP JUMPDEST SWAP4 POP PUSH2 0xC44 DUP2 DUP6 PUSH1 0x20 DUP7 ADD PUSH2 0xBDB JUMP JUMPDEST PUSH2 0xC4D DUP2 PUSH2 0xC0E JUMP JUMPDEST DUP5 ADD SWAP2 POP POP SWAP3 SWAP2 POP POP JUMP JUMPDEST PUSH1 0x0 PUSH1 0xA0 DUP3 ADD SWAP1 POP PUSH2 0xC6D PUSH1 0x0 DUP4 ADD DUP9 PUSH2 0xBB0 JUMP JUMPDEST DUP2 DUP2 SUB PUSH1 0x20 DUP4 ADD MSTORE PUSH2 0xC7F DUP2 DUP8 PUSH2 0xC1F JUMP JUMPDEST SWAP1 POP PUSH2 0xC8E PUSH1 0x40 DUP4 ADD DUP7 PUSH2 0xAF7 JUMP JUMPDEST PUSH2 0xC9B PUSH1 0x60 DUP4 ADD DUP6 PUSH2 0xAF7 JUMP JUMPDEST PUSH2 0xCA8 PUSH1 0x80 DUP4 ADD DUP5 PUSH2 0xACD JUMP JUMPDEST SWAP7 SWAP6 POP POP POP POP POP POP JUMP JUMPDEST PUSH1 0x0 DUP1 REVERT JUMPDEST PUSH1 0x0 DUP1 REVERT JUMPDEST PUSH32 0x4E487B7100000000000000000000000000000000000000000000000000000000 PUSH1 0x0 MSTORE PUSH1 0x41 PUSH1 0x4 MSTORE PUSH1 0x24 PUSH1 0x0 REVERT JUMPDEST PUSH2 0xCF4 DUP3 PUSH2 0xC0E JUMP JUMPDEST DUP2 ADD DUP2 DUP2 LT PUSH8 0xFFFFFFFFFFFFFFFF DUP3 GT OR ISZERO PUSH2 0xD13 JUMPI PUSH2 0xD12 PUSH2 0xCBC JUMP JUMPDEST JUMPDEST DUP1 PUSH1 0x40 MSTORE POP POP POP JUMP JUMPDEST PUSH1 0x0 PUSH2 0xD26 PUSH2 0x9BF JUMP JUMPDEST SWAP1 POP PUSH2 0xD32 DUP3 DUP3 PUSH2 0xCEB JUMP JUMPDEST SWAP2 SWAP1 POP JUMP JUMPDEST PUSH1 0x0 PUSH8 0xFFFFFFFFFFFFFFFF DUP3 GT ISZERO PUSH2 0xD52 JUMPI PUSH2 0xD51 PUSH2 0xCBC JUMP JUMPDEST JUMPDEST PUSH2 0xD5B DUP3 PUSH2 0xC0E JUMP JUMPDEST SWAP1 POP PUSH1 0x20 DUP2 ADD SWAP1 POP SWAP2 SWAP1 POP JUMP JUMPDEST DUP3 DUP2 DUP4 CALLDATACOPY PUSH1 0x0 DUP4 DUP4 ADD MSTORE POP POP POP JUMP JUMPDEST PUSH1 0x0 PUSH2 0xD8A PUSH2 0xD85 DUP5 PUSH2 0xD37 JUMP JUMPDEST PUSH2 0xD1C JUMP JUMPDEST SWAP1 POP DUP3 DUP2 MSTORE PUSH1 0x20 DUP2 ADD DUP5 DUP5 DUP5 ADD GT ISZERO PUSH2 0xDA6 JUMPI PUSH2 0xDA5 PUSH2 0xCB7 JUMP JUMPDEST JUMPDEST PUSH2 0xDB1 DUP5 DUP3 DUP6 PUSH2 0xD68 JUMP JUMPDEST POP SWAP4 SWAP3 POP POP POP JUMP JUMPDEST PUSH1 0x0 DUP3 PUSH1 0x1F DUP4 ADD SLT PUSH2 0xDCE JUMPI PUSH2 0xDCD PUSH2 0xCB2 JUMP JUMPDEST JUMPDEST DUP2 CALLDATALOAD PUSH2 0xDDE DUP5 DUP3 PUSH1 0x20 DUP7 ADD PUSH2 0xD77 JUMP JUMPDEST SWAP2 POP POP SWAP3 SWAP2 POP POP JUMP JUMPDEST PUSH2 0xDF0 DUP2 PUSH2 0xB9E JUMP JUMPDEST DUP2 EQ PUSH2 0xDFB JUMPI PUSH1 0x0 DUP1 REVERT JUMPDEST POP JUMP JUMPDEST PUSH1 0x0 DUP2 CALLDATALOAD SWAP1 POP PUSH2 0xE0D DUP2 PUSH2 0xDE7 JUMP JUMPDEST SWAP3 SWAP2 POP POP JUMP JUMPDEST PUSH1 0x0 DUP1 PUSH1 0x0 PUSH1 0x60 DUP5 DUP7 SUB SLT ISZERO PUSH2 0xE2C JUMPI PUSH2 0xE2B PUSH2 0x9C9 JUMP JUMPDEST JUMPDEST PUSH1 0x0 DUP5 ADD CALLDATALOAD PUSH8 0xFFFFFFFFFFFFFFFF DUP2 GT ISZERO PUSH2 0xE4A JUMPI PUSH2 0xE49 PUSH2 0x9CE JUMP JUMPDEST JUMPDEST PUSH2 0xE56 DUP7 DUP3 DUP8 ADD PUSH2 0xDB9 JUMP JUMPDEST SWAP4 POP POP PUSH1 0x20 PUSH2 0xE67 DUP7 DUP3 DUP8 ADD PUSH2 0x9F4 JUMP JUMPDEST SWAP3 POP POP PUSH1 0x40 PUSH2 0xE78 DUP7 DUP3 DUP8 ADD PUSH2 0xDFE JUMP JUMPDEST SWAP2 POP POP SWAP3 POP SWAP3 POP SWAP3 JUMP JUMPDEST PUSH32 0x6D616E616765722070726976696C65676573206F6E6C79000000000000000000 PUSH1 0x0 DUP3 ADD MSTORE POP JUMP JUMPDEST PUSH1 0x0 PUSH2 0xEB8 PUSH1 0x17 DUP4 PUSH2 0xBCA JUMP JUMPDEST SWAP2 POP PUSH2 0xEC3 DUP3 PUSH2 0xE82 JUMP JUMPDEST PUSH1 0x20 DUP3 ADD SWAP1 POP SWAP2 SWAP1 POP JUMP JUMPDEST PUSH1 0x0 PUSH1 0x20 DUP3 ADD SWAP1 POP DUP2 DUP2 SUB PUSH1 0x0 DUP4 ADD MSTORE PUSH2 0xEE7 DUP2 PUSH2 0xEAB JUMP JUMPDEST SWAP1 POP SWAP2 SWAP1 POP JUMP JUMPDEST PUSH32 0x4E487B7100000000000000000000000000000000000000000000000000000000 PUSH1 0x0 MSTORE PUSH1 0x12 PUSH1 0x4 MSTORE PUSH1 0x24 PUSH1 0x0 REVERT JUMPDEST PUSH32 0x4E487B7100000000000000000000000000000000000000000000000000000000 PUSH1 0x0 MSTORE PUSH1 0x11 PUSH1 0x4 MSTORE PUSH1 0x24 PUSH1 0x0 REVERT JUMPDEST PUSH1 0x0 PUSH2 0xF57 DUP3 PUSH2 0x9D3 JUMP JUMPDEST SWAP2 POP PUSH2 0xF62 DUP4 PUSH2 0x9D3 JUMP JUMPDEST SWAP3 POP DUP3 PUSH2 0xF72 JUMPI PUSH2 0xF71 PUSH2 0xEEE JUMP JUMPDEST JUMPDEST DUP3 DUP3 DIV SWAP1 POP SWAP3 SWAP2 POP POP JUMP JUMPDEST PUSH32 0x4E487B7100000000000000000000000000000000000000000000000000000000 PUSH1 0x0 MSTORE PUSH1 0x22 PUSH1 0x4 MSTORE PUSH1 0x24 PUSH1 0x0 REVERT JUMPDEST PUSH1 0x0 PUSH1 0x2 DUP3 DIV SWAP1 POP PUSH1 0x1 DUP3 AND DUP1 PUSH2 0xFC4 JUMPI PUSH1 0x7F DUP3 AND SWAP2 POP JUMPDEST PUSH1 0x20 DUP3 LT DUP2 EQ ISZERO PUSH2 0xFD8 JUMPI PUSH2 0xFD7 PUSH2 0xF7D JUMP JUMPDEST JUMPDEST POP SWAP2 SWAP1 POP JUMP JUMPDEST PUSH1 0x0 PUSH2 0xFE9 DUP3 PUSH2 0x9D3 JUMP JUMPDEST SWAP2 POP PUSH32 0xFFFFFFFFFFFFFFFFFFFFFFFFFFFFFFFFFFFFFFFFFFFFFFFFFFFFFFFFFFFFFFFF DUP3 EQ ISZERO PUSH2 0x101C JUMPI PUSH2 0x101B PUSH2 0xF1D JUMP JUMPDEST JUMPDEST PUSH1 0x1 DUP3 ADD SWAP1 POP SWAP2 SWAP1 POP JUMP JUMPDEST PUSH32 0x6D696E696D756D20636F6E747269627574696F6E207265717569726564000000 PUSH1 0x0 DUP3 ADD MSTORE POP JUMP JUMPDEST PUSH1 0x0 PUSH2 0x105D PUSH1 0x1D DUP4 PUSH2 0xBCA JUMP JUMPDEST SWAP2 POP PUSH2 0x1068 DUP3 PUSH2 0x1027 JUMP JUMPDEST PUSH1 0x20 DUP3 ADD SWAP1 POP SWAP2 SWAP1 POP JUMP JUMPDEST PUSH1 0x0 PUSH1 0x20 DUP3 ADD SWAP1 POP DUP2 DUP2 SUB PUSH1 0x0 DUP4 ADD MSTORE PUSH2 0x108C DUP2 PUSH2 0x1050 JUMP JUMPDEST SWAP1 POP SWAP2 SWAP1 POP JUMP INVALID LOG2 PUSH5 0x6970667358 0x22 SLT KECCAK256 DUP5 0xC7 0x2B EQ LOG1 0xA5 ISZERO MSIZE NOT 0xFB 0x2F 0xE4 0xF6 SWAP4 0xDC PUSH31 0x2206FE1D7EA81587E1D2522E9794DCBA64736F6C634300080C0033A2646970 PUSH7 0x73582212205DEA 0x24 DIFFICULTY 0xD9 MSTORE8 0xC7 0x27 DUP1 GASPRICE MSIZE DUP15 CODECOPY PUSH22 0xF7F20E2DEF6BFBD6D0427EEB62F003891BB664736F6C PUSH4 0x4300080C STOP CALLER "
    },
    "gasEstimates": {
      "creation": {
        "codeDepositCost": "1173600",
        "executionCost": "1221",
        "totalCost": "1174821"
      },
      "external": {
        "campaigns(uint256)": "infinite",
        "createCampaign(uint256)": "infinite",
        "getCampaigns()": "infinite"
      }
    },
    "methodIdentifiers": {
      "campaigns(uint256)": "141961bc",
      "createCampaign(uint256)": "a3303a75",
      "getCampaigns()": "a6b03633"
    }
  },
  "storageLayout": {
    "storage": [
      {
        "astId": 5,
        "contract": "campaign.sol:CampaignFactory",
        "label": "campaigns",
        "offset": 0,
        "slot": "0",
        "type": "t_array(t_contract(Campaign)312)dyn_storage"
      }
    ],
    "types": {
      "t_array(t_contract(Campaign)312)dyn_storage": {
        "base": "t_contract(Campaign)312",
        "encoding": "dynamic_array",
        "label": "contract Campaign[]",
        "numberOfBytes": "32"
      },
      "t_contract(Campaign)312": {
        "encoding": "inplace",
        "label": "contract Campaign",
        "numberOfBytes": "20"
      }
    }
  },
  "userdoc": {
    "kind": "user",
    "methods": {},
    "version": 1
  }
}